:020000040000FA
:060000000A128A11EA2F2A
:100AC2003F3406345B344F3466346D347D3407343E
:100AD2007F346F3439340F34273401347E088A006E
:100AE2007F0882000A128A116F250A128A11800079
:100AF200840A04087D0603190034FF0A0319FE0A5A
:100B0200732D0030FC000030FB000030FA00003092
:100B1200F900701C8D2D8E2DA52D7408F90775080E
:100B220003110318013E0319972DFA0776080311E2
:100B32000318013E03199E2DFB07770803110318C2
:100B4200013E0319A52DFC070130F8000310F40D36
:100B5200F50DF60DF70DF80BA72D01300310F30C70
:100B6200F20CF10CF00CFF3E031DAF2D7308720462
:100B720071047004031DBE2DBF2D8A2D7C08F30065
:100B82007B08F2007A08F1007908F000080083126D
:100B9200031330082F042E042D040319D12DD22D56
:100BA200152EB601B60AE22D0130B5000310AD0DC7
:100BB200AE0DAF0DB00DB50BD72D0130FF007F0884
:100BC200B607B01FE52DE62DD52D30083402031DE2
:100BD200F42D2F083302031DF42D2E083202031DBB
:100BE200F42D2D083102031CF72DF82D062E2D08A9
:100BF200B1022E08031C2E0FB2022F08031C2F0F66
:100C0200B3023008031C300FB40201300310B00CE1
:100C1200AF0CAE0CAD0CFF3E031D072E0130B60229
:100C2200031D142E152EE62D3408B0003308AF0034
:100C32003208AE003108AD00080000308312031301
:100C4200AB000030AA000030A9000030A800230841
:100C520022042104200403192F2E302E7D2EAC01F4
:100C6200AC0A402E0130FD000310A00DA10DA20D13
:100C7200A30DFD0B352E0130FF007F08AC07A31F2B
:100C8200432E442E332E0130FD000310A80DA90D72
:100C9200AA0DAB0DFD0B462E23082702031D5B2E6A
:100CA20022082602031D5B2E21082502031D5B2E4E
:100CB20020082402031C5E2E5F2E6E2E2008A40242
:100CC2002108031C210FA5022208031C220FA602E1
:100CD2002308031C230FA702281401300310A30CBE
:100CE200A20CA10CA00CFF3E031D6F2E0130AC0222
:100CF200031D7C2E7D2E442E2B08A3002A08A20061
:100D02002908A1002808A0000800831603138801FF
:100D12000130850083120313051185110512851216
:100D22004308880041309F008E30831603139F00D2
:100D3200093083120313B700B70B9D2E00308312C4
:100D42000313BE000030BD000030BC000030BB0009
:100D52000030C2000030C1000030C0000030BF00CF
:100D62001F15831603131E0883120313B700B8015D
:100D72001E08B900BA013908BA00B90137083904A6
:100D8200BB0038083A04BC00BD01BC1BBD033D08D2
:100D9200BE001F19CD2ECE2ECA2E0030A300003069
:100DA200A2000330A100FF30A0003E08F3003D087E
:100DB200F2003C08F1003B08F0000030F700003080
:100DC200F6000530F500DC30F4000A128A118225A3
:100DD2000A128A11730883120313A7007208A6006D
:100DE2007108A5007008A4000A128A111E260A12B0
:100DF2008A11831203132308C2002208C1002108AA
:100E0200C0002008BF000030B0000030AF0000304A
:100E1200AE000A30AD000030A3000030A200003066
:100E2200A1000A30A0004208A7004108A60040081D
:100E3200A5003F08A4000A128A111E260A128A116E
:100E4200831203132308B4002208B3002108B2005E
:100E52002008B1000A128A11C8250A128A118312C7
:100E620003132D08FF007F08D3000030B0000030CC
:100E7200AF000030AE000A30AD000030A3000030F9
:100E8200A2000030A1006430A0004208A70041087F
:100E9200A6004008A5003F08A4000A128A111E26D7
:100EA2000A128A11831203132308B4002208B30022
:100EB2002108B2002008B1000A128A11C8250A12BC
:100EC2008A11831203132D08FF007F08D20000301D
:100ED200B0000030AF000030AE000A30AD0000308C
:100EE200A3000030A2000330A100E830A0004208B5
:100EF200A7004108A6004008A5003F08A4000A1266
:100F02008A111E260A128A11831203132308B400BF
:100F12002208B3002108B2002008B1000A128A1187
:100F2200C8250A128A11831203132D08FF007F08B5
:100F3200D100D12F05118511051285164D088800A3
:100F42000230FF007F08D000B12E05118511051671
:100F520085125308433E840083130008880003303F
:100F6200FF007F08D000B12E0511851505128512EC
:100F72005208433E84008313000888000430FF00B7
:100F82007F08D000B12E0515851105128512510872
:100F9200433E8400831300088800D001D00AB12E9A
:100FA2005008B700B8013808003A0319D92FB12EFA
:100FB2003708013A03199B2F033A0319A62F013A66
:100FC2000319B52F073A0319C42FB12E0A128A1139
:100FD200002883135130FD000530FE006130FF0010
:100FE200433084000A128A1173250A128A11D10130
:0E0FF200D201D301D40183010A128A11862E86
:02400E00713F00
:00000001FF
