:020000040000FA
:060000000A128A11E82F2C
:100B2E003F3406345B344F3466346D347D340734D1
:100B3E007F346F340134F0007008831203178D0078
:100B4E00831603178C130C14831203170C08FF0063
:100B5E007F08F100710808007E088A007F08820075
:100B6E000A128A11B3250A128A118000840A040817
:100B7E007D0603190034FF0A0319FE0AB72DF10092
:100B8E00831603178C18CC2DCD2DC72D710883120B
:100B9E0003178D0070088C00831603178C130C1529
:100BAE008B1355308D00AA308D008C148B170C11C1
:100BBE008C100800F501F31FE52DE62DED2DF20941
:100BCE00F309F20A0319F30AF501F50AF11FF02DE4
:100BDE00F12DF62DF009F109F00A0319F10A70084A
:100BEE0071040319FB2DFC2D2B2EF401F40A0A2E91
:100BFE0001300310F00DF10DFF3E031D002E0130EC
:100C0E00FF007F08F407F11F0D2E0E2EFF2D710829
:100C1E007302031D142E70087202031C172E182E59
:100C2E001E2E7008F2027108031CF303F30201304A
:100C3E000310F10CF00CFF3E031D1F2E0130F402C9
:100C4E00031D2A2E2B2E0E2E750803192F2E302E35
:100C5E00352EF209F309F20A0319F30A7308F100AB
:100C6E007208F0000800F501F11F3E2E3F2E462EB1
:100C7E00F009F109F00A0319F10AF501F50AF31F5B
:100C8E00492E4A2E532EF209F309F20A0319F30ADA
:100C9E000130FF007F08F506F601F70170087104B8
:100CAE0003195A2E5B2E922EF401F40A692E01308E
:100CBE000310F00DF10DFF3E031D5F2E0130FF00FE
:100CCE007F08F407F11F6C2E6D2E5E2E013003107F
:100CDE00F60DF70DFF3E031D6E2E71087302031DF8
:100CEE007A2E70087202031C7D2E7E2E852E7008C1
:100CFE00F2027108031CF303F302761401300310A1
:100D0E00F10CF00CFF3E031D862E0130F402031D84
:100D1E00912E922E6D2E75080319962E972E9C2EBF
:100D2E00F609F709F60A0319F70A7708F1007608AB
:100D3E00F000080083160313880185018312031344
:100D4E0005118511051285122008880083160313DC
:100D5E00861400300A128A11A2250A128A11FF0087
:100D6E007F08FC007C03031DBD2EBE2EDB2E013042
:100D7E000A128A11A2250A128A11FF007F08FC00AE
:100D8E007C08FF007F08FD0002300A128A11A2259E
:100D9E000A128A11FF007F08FC007C08FF007F0802
:100DAE0083120313AF00DF2EFD0183120313AF0175
:100DBE00FA01FB0190307A06031DE92E7B03031D19
:100DCE00E92EEA2EF02E0130FF007F08FD07FA0112
:100DDE00FB0163307D06031DF52EF62EFD2E013030
:100DEE00FF007F0883120313AF07FD0163308312E8
:100DFE0003132F06031D042F052F062FAF01861890
:100E0E00092F0A2F2C2F861C0D2F0E2F0A2FF001C3
:100E1E00F00A00300A128A11C6250A128A117D08BC
:100E2E00FF007F08F00001300A128A11C6250A124F
:100E3E008A11831203132F08FF007F08F00002307F
:100E4E000A128A11C6250A128A110A30F0000030E1
:100E5E00F1007D08F800F9017808F2007908F30036
:100E6E000A128A11E1250A128A117008FF007F0802
:100E7E0083120313AE000A30F0000030F1007D083B
:100E8E00F800F9017808F2007908F3000A128A11C5
:100E9E003A260A128A117008FF007F088312031384
:100EAE00AD000A30F0000030F1002F08F800F90113
:100EBE007808F2007908F3000A128A11E1250A1265
:100ECE008A117008FF007F0883120313AC000A30EA
:100EDE00F0000030F1002F08F800F9017808F20058
:100EEE007908F3000A128A113A260A128A1170083A
:100EFE00FF007F0883120313AB00BF2F051185116E
:100F0E00051285162E08203E8400831300088800E3
:100F1E000230FF007F08AA00D52F05118511051696
:100F2E0085122D08203E84008313000888000330AC
:100F3E00FF007F08AA00D52F051185150512851211
:100F4E002C08203E84008313000888000430FF0024
:100F5E007F08AA00D52F05158511051285122B08BD
:100F6E00203E8400831300088800AA01AA0AD52F08
:100F7E002A08F800F9017908003A0319C72FD52F6E
:100F8E007808013A0319852F033A0319942F013A71
:100F9E000319A32F073A0319B22FD52F0330F900E7
:100FAE009730F800F80BD92FF90BD92FDE2F01301F
:100FBE00FA070318FB0A0030FB07E12E0A128A110A
:100FCE00002883132B30FD000530FE009730FF0004
:100FDE00203084000A128A11B7250A128A11AB0139
:100FEE00AC01AD01AE01AF01FD0183010A128A1100
:020FFE00A12E22
:02400E00713F00
:00000001FF
