:020000040000FA
:060000000A128A11ED2F27
:100CCA007E088A007F0882000A128A1165260A12A3
:100CDA008A118000840A04087D0603190034FF0A79
:100CEA000319FE0A692EF4007408031D7D2E7E2E58
:100CFA00872E7308740780380A128A118A270A1203
:100D0A008A118F2E7308403E80380A128A118A2768
:100D1A000A128A110800831603138801091189101F
:100D2A0002300A128A118A270A128A1128300A12F4
:100D3A008A118A270A128A110C300A128A118A2702
:100D4A000A128A1101300A128A118A270A128A1192
:100D5A000800543468346934733420346934733481
:100D6A002034613420347334743461347434693413
:100D7A00633420346D3461347334733461346734CA
:100D8A0065342034723469346734683474342034F6
:100D9A0073346834693466347434653464340034C2
:100DAA0000340A128A1190260A128A11F801F301F4
:100DBA0000300A128A1178260A128A11042F20306A
:100DCA007907F50078087507F6007608840083131A
:100DDA0000080A128A1127270A128A110130FF0015
:100DEA007F08F80710307806031DFC2EFD2E042F0D
:100DFA00F30101300A128A1178260A128A11283060
:100E0A007802031C092F0A2FE42EF8010130FF0093
:100E1A007F08F90729307902031C142F152F162F82
:100E2A00F9010630F7001330F600AD30F500F50B86
:100E3A001C2FF60B1C2FF70B1C2F232FDC2E0A124C
:100E4A008A110028F2008312031309150330F100F6
:100E5A009730F000F00B2F2FF10B2F2F342F831226
:100E6A00031389140330F1009730F000F00B3B2F85
:100E7A00F10B3B2F402F7208F039831203138800BD
:100E8A000330F1009730F000F00B492FF10B492F96
:100E9A004E2F8312031389100330F1009730F000AC
:100EAA00F00B552FF10B552F5A2F83120313891468
:100EBA000330F1009730F000F00B612FF10B612F36
:100ECA00662F7208F00003300310F00DFF3E031D79
:100EDA00692F0310700DF039831203138800033051
:100EEA00F1009730F000F00B782FF10B782F7D2F5F
:100EFA008312031389100330F1009730F000F00BCE
:100F0A00842FF10B842F892F0800F2008312031318
:100F1A0009110330F1009730F000F00B922FF10B1A
:100F2A00922F972F8312031389140330F1009730FD
:100F3A00F000F00B9E2FF10B9E2FA32F7208F039B1
:100F4A008312031388000330F1009730F000F00B8E
:100F5A00AC2FF10BAC2FB12F83120313891003307E
:100F6A00F1009730F000F00BB82FF10BB82FBD2F1E
:100F7A008312031389140330F1009730F000F00B49
:100F8A00C42FF10BC42FC92F7208F00003300310CD
:100F9A00F00DFF3E031DCC2F0310700DF0398312A4
:100FAA00031388000330F1009730F000F00BDB2FB9
:100FBA00F10BDB2FE02F8312031389100330F100AA
:100FCA009730F000F00BE72FF10BE72FEC2F08001A
:100FDA0083134830FD000630FE00AE30FF0020309B
:100FEA0084000A128A1169260A128A11F9018301F8
:060FFA000A128A11D62E36
:02400E00713F00
:00000001FF
