:020000040000FA
:060000000A128A1110280B
:10000800FE00030EF0000A08F100831203137F08B4
:10001800F2000A128A11892F0A128A1113288316EC
:1000280003170A128A11FB270A128A11EF00831399
:100038004930FD000730FE003F30FF0020308400CB
:100048000A128A11EC270A128A11E601E701E8016F
:10005800E901EA01EB01EC01ED01EE01F801F9011A
:10006800FA0183010A128A113928831603138615A7
:100078000616861506160A128A1168270A128A11A8
:100088000A128A15ED270A128A11303083120313D7
:10009800CC000030CD00CE010330FF007F08CF0038
:1000A8000A128A11A3270A128A1120308312031315
:1000B800CC000030CD00CE01CE0ACF010A128A1141
:1000C800A3270A128A1183160317E60190016530E7
:1000D800831603176D02031C7228732878280130D1
:1000E800FF007F08EC07ED013C306C06031D7D28FE
:1000F8007E2883280130FF007F08EB07EC013C30A5
:100108006B06031D882889288E280130FF007F0888
:10011800EA07EB013C306A06031D932894289528CA
:10012800EA018312031386199A289B28D628861D6C
:100138009E289F289B28C228101083160317EE01BB
:10014800D62801300A128A1133260A128A1142303F
:1001580083120313CC000030CD00CE01CF010A1268
:100168008A11A3270A128A11831203131014831603
:100178000317EE01EE0AE601E60AD62883160317EE
:100188006E0883120313DF00E0016008003A0319C8
:10019800CE28D6285F08003A0319A528013A031982
:1001A800A028D62883120313861ADB28DC28F32814
:1001B800861EDF28E028DC28831603176E08031D37
:1001C800E628E728F3280130FF007F08E8076808D9
:1001D800803A7B3E031CF128F228F328E8018312B9
:1001E80003130618F828F9281029061CFC28FD28EE
:1001F800F928831603176E08031D032904291029FB
:10020800FF30FF007F08E807E81F0B290C29102999
:100218000430FF007F08E80083120313061A15292B
:1002280016294B29061E19291A291629372901309A
:10023800FF007F0883160317E9070130FF007F08D6
:10024800900706306902031C2A292B292D29E90168
:10025800E90AE701E70AFA01FA0A4B2983160317A4
:10026800EF01EF0A4B29831603176E088312031355
:10027800DF00E0016008003A031943294B295F08B1
:10028800003A03193229013A03191B294B2983160D
:1002980003176F03031D51295229DE29910191018A
:1002A8000C30FF007F08F30011080A128A11D327C7
:1002B8000A128A119E3E84003030FF007F0883179F
:1002C80080003030FF007F0883160317AD000C3024
:1002D800FF007F08F30011080A128A11D3270A12B7
:1002E8008A11063E9E3E84003030FF007F08831747
:1002F80080000C30FF007F08F300831603171108F5
:100308000A128A11D3270A128A11093E9E3E8400D6
:100318003030FF007F08831780000C30FF007F0813
:10032800F3008316031711080A128A11D3270A1239
:100338008A11013E9E3E84002030FF007F0883170B
:1003480080002030FF007F0883160317AE000C30B2
:10035800FF007F08F30011080A128A11D3270A1236
:100368008A11073E9E3E84002030FF007F088317D5
:1003780080000C30FF007F08F30083160317110874
:100388000A128A11D3270A128A110A3E9E3E840055
:100398002030FF007F08831780000130FF007F08AE
:1003A80083160317910705301102031CDC29DD2988
:1003B8005429EF016703031DE229E3294A2C6A083F
:1003C80083120313DF00E001E101E2016208DA00B1
:1003D8006108D9006008D8005F08D7000C30FF001A
:1003E8007F08F3008316031769080A128A11D327B6
:1003F8000A128A11F43E9E3EFF007F0883120313FF
:10040800DB000A128A115F240A128A118316031765
:100418006B0883120313DF00E001E101E2016208C7
:10042800DA006108D9006008D8005F08D7000C30EE
:10043800FF007F08F3008316031769080A128A1160
:10044800D3270A128A11F73E9E3EFF007F088312C7
:100458000313DB000A128A115F240A128A11831619
:1004680003176C0883120313DF00E001E101E201C6
:100478006208DA006108D9006008D8005F08D70070
:100488000C30FF007F08F3008316031769080A126F
:100498008A11D3270A128A11FA3E9E3EFF007F086E
:1004A80083120313DB000A128A115F240A128A11CD
:1004B800831603176D0883120313DF00E001E101BF
:1004C800E2016208DA006108D9006008D8005F0814
:1004D800D7000C30FF007F08F30083160317690864
:1004E8000A128A11D3270A128A11FD3E9E3EFF0086
:1004F8007F0883120313DB000A128A115F240A1291
:100508008A1183160317E7014A2C831603176A0812
:1005180083120313DF00E001E101E2016208DA005F
:100528006108D9006008D8005F08D7009230FF0042
:100538007F08DB000A128A115F240A128A1192309E
:1005480083120313CC000130CD00CE010530FF002B
:100558007F08CF000A128A11A3270A128A1183166C
:1005680003176B0883120313DF00E001E101E201C6
:100578006208DA006108D9006008D8005F08D7006F
:100588009530FF007F08DB000A128A115F240A12E7
:100598008A11953083120313CC000130CD00CE01AF
:1005A8000830FF007F08CF000A128A11A3270A1219
:1005B8008A11831603176C0883120313DF00E00106
:1005C800E101E2016208DA006108D9006008D80098
:1005D8005F08D7009830FF007F08DB000A128A11F5
:1005E8005F240A128A11983083120313CC00013059
:1005F800CD00CE010B30FF007F08CF000A128A1110
:10060800A3270A128A11831603176D08831203138E
:10061800DF00E001E101E2016208DA006108D900C7
:100628006008D8005F08D7009B30FF007F08DB0018
:100638000A128A115F240A128A119B30831203134B
:10064800CC000130CD00CE010E30FF007F08CF0076
:100658000A128A11A3270A128A117A03031D352B5D
:10066800362B6B280C30FF007F08F3008316031726
:1006780069080A128A11D3270A128A11F43E9E3E8B
:1006880083120313CC000130CD00CE01CE0A053011
:10069800FF007F08CF000A128A11A3270A128A11C5
:1006A8000C30FF007F08F3008316031769080A124D
:1006B8008A11D3270A128A11F73E9E3E831203132A
:1006C800CC000130CD00CE01CE0A0830FF007F08F3
:1006D800CF000A128A11A3270A128A110C30FF00D0
:1006E8007F08F3008316031769080A128A11D327B3
:1006F8000A128A11FA3E9E3E83120313CC0001307F
:10070800CD00CE01CE0A0B30FF007F08CF000A12C1
:100718008A11A3270A128A110C30FF007F08F30000
:100728008316031769080A128A11D3270A128A1135
:10073800FD3E9E3E83120313CC000130CD00CE0156
:10074800CE0A0E30FF007F08CF000A128A11A327B5
:100758000A128A118316031769082F3EFF007F08C3
:1007680083120313BC003B30CC000030CD00CE0117
:10077800CE0ACF010A128A11A3270A128A116B28FE
:10078800831603176603031DCA2BCB2B6B280C306B
:10079800FF007F08F30068080A128A11D3270A129B
:1007A8008A119E3E83120313CC000130CD00CE0186
:1007B800CE0A0530FF007F08CF000A128A11A3274E
:1007C8000A128A110C30FF007F08F3008316031702
:1007D80068080A128A11D3270A128A11033E9E3E1C
:1007E80083120313CC000130CD00CE01CE0A0830AD
:1007F800FF007F08CF000A128A11A3270A128A1164
:100808000C30FF007F08F3008316031768080A12EC
:100818008A11D3270A128A11063E9E3E83120313B9
:10082800CC000130CD00CE01CE0A0B30FF007F088E
:10083800CF000A128A11A3270A128A110C30FF006E
:100848007F08F3008316031768080A128A11D32752
:100858000A128A11093E9E3E83120313CC0001300E
:10086800CD00CE01CE0A0E30FF007F08CF000A125D
:100878008A11A3270A128A11831603176808303EC3
:10088800FF007F0883120313BC00B72B6E08831286
:100898000313DF00E0016008003A0319542C6B28A9
:1008A8005F08003A0319C42B013A0319892A6B28F7
:1008B8000A128A11102883120313DE015A085904F8
:1008C800580457040319692C6A2CF32CB02C0030F7
:1008D800CC000030CB000030CA000A30C9005A08EA
:1008E800D0005908CF005808CE005708CD000A128A
:1008F8008A11AC250A128A11831203134908303E63
:10090800FF005E085B07F600760884007F088317FF
:1009180080000030CC000030CB000030CA000A3024
:10092800C9005A08D0005908CF005808CE00570807
:10093800CD000A128A110F250A128A118312031395
:100948004C08DA004B08D9004A08D8004908D700F3
:100958000130FF007F08DE075A085904580457047D
:10096800031DB72CB82C6B2C5E085B07F6007608C5
:100978008400831780015E08FF3EFF007F08DD00CA
:10098800DE01EC2C5E085B07F600760884000008A0
:10099800FF007F08DC005D085B07F600760884002E
:1009A8000008FF005E085B07F700770884007F08EF
:1009B80080005C08FF005D085B07F600760884008D
:1009C8007F0880000130DD020130FF007F08DE076C
:1009D8005D085E02031CF12CF22CC62CFD2C303075
:1009E800FF005B0884007F08831780005B0A84008F
:1009F80080015B0A84000008031D032D042D0E2DC1
:100A08002030FF005B0A84007F0880005B08023EFC
:100A180084008001080083120313D201CC1F152D16
:100A2800162D232DC909CA09CB09CC09C90A0319EE
:100A3800CA0A0319CB0A0319CC0AD201D20AD01F59
:100A4800262D272D362DCD09CE09CF09D009CD0A5F
:100A58000319CE0A0319CF0A0319D00A0130FF007F
:100A68007F08D2060030D6000030D5000030D40010
:100A78000030D3004C084B044A0449040319452D9F
:100A8800462D932DD101D10A562D0130F3000310C4
:100A9800C90DCA0DCB0DCC0DF30B4B2D0130FF004A
:100AA8007F08D107CC1F592D5A2D492D0130F3004D
:100AB8000310D30DD40DD50DD60DF30B5C2D4C08BA
:100AC8005002031D712D4B084F02031D712D4A085A
:100AD8004E02031D712D49084D02031C742D752DFE
:100AE800842D4908CD024A08031C4A0FCE024B0840
:100AF800031C4B0FCF024C08031C4C0FD00253149D
:100B080001300310CC0CCB0CCA0CC90CFF3E031DE2
:100B1800852D0130D102031D922D932D5A2D520897
:100B28000319972D982DA32DD309D409D509D609D2
:100B3800D30A0319D40A0319D50A0319D60A560881
:100B4800CC005508CB005408CA005308C900080057
:100B5800F50183120313D01FB22DB32DC02DCD097B
:100B6800CE09CF09D009CD0A0319CE0A0319CF0A35
:100B78000319D00AF501F50ACC1FC32DC42DCF2DBA
:100B8800C909CA09CB09CC09C90A0319CA0A031930
:100B9800CB0A0319CC0A4C084B044A04490403192C
:100BA800D62DD72D1A2EF401F40AE72D0130F300C3
:100BB8000310C90DCA0DCB0DCC0DF30BDC2D013084
:100BC800FF007F08F407CC1FEA2DEB2DDA2D4C0827
:100BD8005002031DF92D4B084F02031DF92D4A0839
:100BE8004E02031DF92D49084D02031CFC2DFD2D55
:100BF8000B2E4908CD024A08031C4A0FCE024B08A7
:100C0800031C4B0FCF024C08031C4C0FD0020130C1
:100C18000310CC0CCB0CCA0CC90CFF3E031D0C2EC8
:100C28000130F402031D192E1A2EEB2D7508031935
:100C38001E2E1F2E2A2ECD09CE09CF09D009CD0A86
:100C48000319CE0A0319CF0A0319D00A5008CC0099
:100C58004F08CB004E08CA004D08C9000800F5002F
:100C68008312031309110330F4009730F300F30BD8
:100C78003B2EF40B3B2E402E8312031389140330B2
:100C8800F4009730F300F30B472EF40B472E4C2E4D
:100C98000F30FF007F088312031388057508F039A9
:100CA800FF007F0888040330F4009730F300F30B4B
:100CB8005B2EF40B5B2E602E831203138910033016
:100CC800F4009730F300F30B672EF40B672E6C2EAD
:100CD8008312031389140330F4009730F300F30BE5
:100CE800732EF40B732E782E0F30FF007F088312BB
:100CF800031388057508F30003300310F30DFF3E56
:100D0800031D812E0310730DF039FF007F0888043E
:100D18000330F4009730F300F30B902EF40B902E71
:100D2800952E8312031389100330F4009730F300D3
:100D3800F30B9C2EF40B9C2EA12E0800F5008312B9
:100D4800031309150330F4009730F300F30BAA2EB0
:100D5800F40BAA2EAF2E8312031389140330F40068
:100D68009730F300F30BB62EF40BB62EBB2E0F30D4
:100D7800FF007F088312031388057508F039FF0008
:100D88007F0888040330F4009730F300F30BCA2E71
:100D9800F40BCA2ECF2E8312031389100330F400EC
:100DA8009730F300F30BD62EF40BD62EDB2E8312DE
:100DB800031389140330F4009730F300F30BE22E89
:100DC800F40BE22EE72E0F30FF007F088312031387
:100DD80088057508F30003300310F30DFF3E031D6B
:100DE800F02E0310730DF039FF007F0888040330DC
:100DF800F4009730F300F30BFF2EF40BFF2E042FB3
:100E08008312031389100330F4009730F300F30BB7
:100E18000B2FF40B0B2F102F080083120313CB0199
:100E28002D2F4B087607C90077080318013ECA0022
:100E38004908840083174A1C831300080A128A1180
:100E4800A2260A128A110130FF007F0883120313B9
:100E5800CB074B087607C90077080318013ECA007C
:100E68004908840083174A1C83130008031D3D2F7B
:100E78003E2F152F080050347234653473347334A0
:100E8800203420345334743461347234743420344C
:100E98006B3465347934533474346F34703420349B
:100EA8005734613474346334683400344C346E34E9
:100EB8003A340034003400340034533457343A346C
:100EC80000340034003400340F30FF007F088316EC
:100ED800031388050911891002300A128A11332672
:100EE8000A128A1128300A128A1133260A128A1124
:100EF8000C300A128A1133260A128A1101300A129A
:100F08008A1133260A128A1108000C1C8C2F8D2F87
:100F18009A2F0130FF007F0883160317ED07D8309A
:100F2800831203138F00F0308E000C107208FF003C
:100F380071088A00700E8300FE0E7E0E090083126F
:100F480003134F08FF007F08F6004E080A128A11A3
:100F5800BB270A128A11831203134C08F6004D08A6
:100F6800F7000A128A1111270A128A110800F700DD
:100F78007708031DC02FC12FCA2F7608770780383E
:100F88000A128A1133260A128A11D22F7608403E95
:100F980080380A128A1133260A128A110800F500CD
:100FA800F401751CD82FD92FDD2F7308FF007F0897
:100FB800F4070310F30D0310F50C7508031DE52F56
:100FC800E62FD52F740808007E088A007F08820063
:100FD8000A128A11E8270A128A118000840A040872
:100FE8007D0603190034FF0A0319FE0AEC2F0134A9
:101FDA00D830831203138F00F0308E009010101245
:101FEA0090121010831603130C14831203130C108F
:061FFA000B178B17080015
:02400E00713F00
:00000001FF
