:020000040000FA
:060000000A128A11E92F2B
:1006A200F8007708FF007F08F30076080A128A1123
:1006B20076230A128A1178080A128A118E230A12E4
:1006C2008A1108007E088A007F0882000A128A11B5
:1006D20063230A128A118000840A04087D06031922
:1006E2000034FF0A0319FE0A672BF4007408031D85
:1006F2007B2B7C2B852B7308740780380A128A1196
:1007020093240A128A118D2B7308403E80380A12F4
:100712008A1193240A128A110800F400F501A02B11
:1007220075087407F3007308840000080A128A111E
:1007320030240A128A110130FF007F08F50775087C
:100742007407F3007308840083130008031DAA2BA7
:10075200AB2B912B08008316031388010911891012
:1007620002300A128A1193240A128A1128300A12BC
:100772008A1193240A128A110C300A128A119324C4
:100782000A128A1101300A128A1193240A128A115A
:100792000800543465346D34703420343A342034D3
:1007A20000340034003400340034003400340034A7
:1007B20000344C344D3433343534203454346534BD
:1007C2006D3470342034533465346E3473346F3482
:1007D20072340030FC000030FB000030FA000030C0
:1007E200F900701CF52BF62B0D2C7408F90775080F
:1007F20003110318013E0319FF2BFA0776080311B0
:100802000318013E0319062CFB077708031103188E
:10081200013E03190D2CFC070130F8000310F40D02
:10082200F50DF60DF70DF80B0F2C01300310F30C3C
:10083200F20CF10CF00CFF3E031D172C730872042E
:1008420071047004031D262C272CF22B7C08F30064
:100852007B08F2007A08F1007908F0000800F20043
:100862008312031309150330F1009730F000F00BE7
:10087200382CF10B382C3D2C8312031389140330CE
:10088200F1009730F000F00B442CF10B442C492C72
:100892007208F0398312031388000330F100973095
:1008A200F000F00B522CF10B522C572C8312031335
:1008B20089100330F1009730F000F00B5E2CF10B41
:1008C2005E2C632C8312031389140330F1009730DA
:1008D200F000F00B6A2CF10B6A2C6F2C7208F000FE
:1008E20003300310F00DFF3E031D722C0310700D38
:1008F200F0398312031388000330F1009730F000BF
:10090200F00B812CF10B812C862C8312031389109E
:100912000330F1009730F000F00B8D2CF10B8D2C91
:10092200922C0800F2008312031309110330F10024
:100932009730F000F00B9B2CF10B9B2CA02C831218
:10094200031389140330F1009730F000F00BA72C49
:10095200F10BA72CAC2C7208F03983120313880018
:100962000330F1009730F000F00BB52CF10BB52CF1
:10097200BA2C8312031389100330F1009730F00070
:10098200F00BC12CF10BC12CC62C8312031389145A
:100992000330F1009730F000F00BCD2CF10BCD2C91
:1009A200D22C7208F00003300310F00DFF3E031D3D
:1009B200D52C0310700DF039831203138800033015
:1009C200F1009730F000F00BE42CF10BE42CE92C51
:1009D2008312031389100330F1009730F000F00BFB
:1009E200F02CF10BF02CF52C0800003083120313CD
:1009F200CB000030CA000030C9000030C8004308F4
:100A02004204410440040319072D082D552DCC0141
:100A1200CC0A182D0130FD000310C00DC10DC20D0E
:100A2200C30DFD0B0D2D0130FF007F08CC07C31F46
:100A32001B2D1C2D0B2D0130FD000310C80DC90DFF
:100A4200CA0DCB0DFD0B1E2D43084702031D332D8E
:100A520042084602031D332D41084502031D332D72
:100A620040084402031C362D372D462D4008C4028F
:100A72004108031C410FC5024208031C420FC60273
:100A82004308031C430FC702481401300310C30C70
:100A9200C20CC10CC00CFF3E031D472D0130CC021D
:100AA200031D542D552D1C2D4B08C3004A08C200AE
:100AB2004908C1004808C0000800FA01F71F622D6A
:100AC200632D702DF409F509F609F709F40A0319E3
:100AD200F50A0319F60A0319F70AFA01FA0AF31FCB
:100AE200732D742D7F2DF009F109F209F309F00A33
:100AF2000319F10A0319F20A0319F30A73087204BB
:100B0200710470040319862D872DCA2DF901F90A83
:100B1200972D0130F8000310F00DF10DF20DF30DD9
:100B2200F80B8C2D0130FF007F08F907F31F9A2D77
:100B32009B2D8A2D73087702031DA92D7208760258
:100B4200031DA92D71087502031DA92D70087402D9
:100B5200031CAC2DAD2DBB2D7008F4027108031CD3
:100B6200710FF5027208031C720FF6027308031C60
:100B7200730FF70201300310F30CF20CF10CF00CBE
:100B8200FF3E031DBC2D0130F902031DC92DCA2DE4
:100B92009B2D7A080319CE2DCF2DDA2DF409F509F4
:100BA200F609F709F40A0319F50A0319F60A0319F3
:100BB200F70A7708F3007608F2007508F100740866
:100BC200F000080083120313C101F31FE92DEA2D7F
:100BD200F72DF009F109F209F309F00A0319F10AF4
:100BE2000319F20A0319F30AC101C10AF71FFA2D08
:100BF200FB2D0A2EF409F509F609F709F40A03197F
:100C0200F50A0319F60A0319F70A0130FF007F08F3
:100C1200C1060030C5000030C4000030C3000030FF
:100C2200C20073087204710470040319192E1A2E7B
:100C3200672EC001C00A2A2E0130F8000310F00D01
:100C4200F10DF20DF30DF80B1F2E0130FF007F089E
:100C5200C007F31F2D2E2E2E1D2E0130F80003107B
:100C6200C20DC30DC40DC50DF80B302E73087702EB
:100C7200031D452E72087602031D452E710875026A
:100C8200031D452E70087402031C482E492E582E4F
:100C92007008F4027108031C710FF5027208031C3C
:100CA200720FF6027308031C730FF702421401302D
:100CB2000310F30CF20CF10CF00CFF3E031D592E45
:100CC2000130C002031D662E672E2E2E4108031925
:100CD2006B2E6C2E772EC209C309C409C509C20A3C
:100CE2000319C30A0319C40A0319C50A4508F30004
:100CF2004408F2004308F1004208F00008008312A1
:100D02000313CD01490848044704460403198A2EF7
:100D12008B2E142FD12E0030F3000030F200003061
:100D2200F1000A30F0004908F7004808F6004708C9
:100D3200F5004608F4000A128A115E250A128A1189
:100D42007008303EFF00831203134D084A07FB0070
:100D52007B0884007F08831380000030F30000309A
:100D6200F2000030F1000A30F0004908F7004808AC
:100D7200F6004708F5004608F4000A128A11E32536
:100D82000A128A11730883120313C9007208C80079
:100D92007108C7007008C6000130FF007F08CD0748
:100DA2004908480447044604031DD82ED92E8C2E28
:100DB2004D084A07FB007B088400831380014D081D
:100DC200FF3EFF007F08CC00CD010D2F4D084A07E2
:100DD200FB007B0884000008FF007F08CB004C0862
:100DE2004A07FB007B0884000008FF004D084A0701
:100DF200FC007C0884007F0880004B08FF004C0840
:100E02004A07FB007B0884007F0880000130CC0287
:100E12000130FF007F08CD074C084D02031C122F42
:100E2200132FE72E1E2F3030FF004A0884007F0860
:100E3200831380004A0A8400800108000A128A1182
:100E4200AC230A128A11831603130514413083124C
:100E520003139F008E30831603139F0013308312F7
:100E62000313CE00CE0B332F003083120313DA00AC
:100E72000030D9000030D8000030D7000030DE004A
:100E82000030DD000030DC000030DB005230840036
:100E92000530FF0083138001840AFF0B4B2FF601FC
:100EA200F70130300A128A1151230A128A11F6010F
:100EB200F60AF70120300A128A1151230A128A1106
:100EC200831203131F151F19672F682F642F8316B0
:100ED20003131E0883120313CE00CF011E08D00095
:100EE200D1015008D100D0014E085004D7004F085C
:100EF2005104D800D901D81BD9035908DA000030AF
:100F0200C3000030C2000330C100FF30C0005A08E5
:100F1200F3005908F2005808F1005708F0000030B9
:100F2200F7000030F6000530F500DC30F4000A125C
:100F32008A11EA230A128A11730883120313C70063
:100F42007208C6007108C5007008C4000A128A112E
:100F5200F6240A128A11831203134308DE004208A0
:100F6200DD004108DC004008DB005E08C9005D08C6
:100F7200C8005C08C7005B08C6005230FF007F084B
:100F8200CA000A128A1180260A128A11F601F60A8A
:100F92000A30FF007F08F70052300A128A115123EB
:100FA2000A128A1120300A128A1130240A128A1176
:100FB20043300A128A1130240A128A1120300A128E
:100FC2008A1130240A128A11612F0A128A1100280A
:100FD20083134030FD000330FE00CA30FF00203092
:100FE20084000A128A1167230A128A11DF01E001C2
:0E0FF200E101E201E30183010A128A111F2FBF
:02400E00713F00
:00000001FF
