:020000040000FA
:060000000A128A11EE2F26
:100C6200F8007708FF007F08F30076080A128A115D
:100C720056260A128A1178080A128A116E260A1258
:100C82008A1108007E088A007F0882000A128A11EF
:100C920043260A128A118000840A04087D06031979
:100CA2000034FF0A0319FE0A472EF4007408031DDC
:100CB2005B2E5C2E652E7308740780380A128A1127
:100CC2008B270A128A116D2E7308403E80380A1251
:100CD2008A118B270A128A110800F400F501802E6E
:100CE20075087407F3007308840000080A128A1159
:100CF20028270A128A110130FF007F08F5077508BC
:100D02007407F3007308840083130008031D8A2EFE
:100D12008B2E712E08008316031388010911891086
:100D220002300A128A118B270A128A1128300A12FB
:100D32008A118B270A128A110C300A128A118B2708
:100D42000A128A1101300A128A118B270A128A1199
:100D5200080043346F3475346E3474343A340034DA
:100D620000340034003400340034003400340034E1
:100D720000343134303420344434693467346934D3
:100D82007434203443346F3475346E3474346534BF
:100D920072343934393439343934393439343934B0
:100DA20039343934393400340A128A118C260A1241
:100DB2008A11F601F70130300A128A1131260A121D
:100DC2008A11F601F60AF70120300A128A11312639
:100DD2000A128A1104300A128A118B270A128A1106
:100DE200013083120313C002F9017908403E8400E6
:100DF2003030831300020318FF2E002F0C2F7908C6
:100E0200413E8400013080023930FF007908403EC3
:100E120084007F0880000130FF007F08F9070A3054
:100E22007902031C152F162FF62E0230FF007F08C1
:100E3200F6000F30FF007F08F70040300A128A11D7
:100E420031260A128A11F12E0A128A110028F200A2
:100E52008312031309150330F1009730F000F00BF1
:100E6200302FF10B302F352F8312031389140330E7
:100E7200F1009730F000F00B3C2FF10B3C2F412F8B
:100E82007208F0398312031388000330F10097309F
:100E9200F000F00B4A2FF10B4A2F4F2F831203134E
:100EA20089100330F1009730F000F00B562FF10B50
:100EB200562F5B2F8312031389140330F1009730EE
:100EC200F000F00B622FF10B622F672F7208F00017
:100ED20003300310F00DFF3E031D6A2F0310700D47
:100EE200F0398312031388000330F1009730F000C9
:100EF200F00B792FF10B792F7E2F831203138910B8
:100F02000330F1009730F000F00B852FF10B852FA5
:100F12008A2F0800F2008312031309110330F10033
:100F22009730F000F00B932FF10B932F982F831231
:100F3200031389140330F1009730F000F00B9F2F58
:100F4200F10B9F2FA42F7208F0398312031388002C
:100F52000330F1009730F000F00BAD2FF10BAD2F05
:100F6200B22F8312031389100330F1009730F0007F
:100F7200F00BB92FF10BB92FBE2F83120313891473
:100F82000330F1009730F000F00BC52FF10BC52FA5
:100F9200CA2F7208F00003300310F00DFF3E031D4C
:100FA200CD2F0310700DF039831203138800033024
:100FB200F1009730F000F00BDC2FF10BDC2FE12F6A
:100FC2008312031389100330F1009730F000F00B05
:100FD200E82FF10BE82FED2F080083134B30FD00B3
:100FE2000630FE00AA30FF00203084000A128A1167
:0E0FF20047260A128A1183010A128A11D52E8F
:02400E00713F00
:00000001FF
