:020000040000FA
:060000000A128A11122809
:10000800FE00030EF7000408F8000A08F90083123E
:1000180003137F08FA000A128A11822A0A128A1127
:10002800152883133030FD000430FE001D30FF001A
:10003800203084000A128A110E240A128A110A1228
:100048008A112D240A128A11FB000A128A112E2401
:100058000A128A11FC000A128A112F240A128A1124
:10006800FD00BA01BB01BC01BD01BE01BF01C00159
:10007800C101C20183010A128A114228831603139F
:100088008801850186150614861606160614861636
:1000980083120313051185110512851220088800A3
:1000A8000B168316031301133C30831203138F00BE
:1000B800B0308E0090101016901210108316031393
:1000C8000C14831203130C100B178B1786196D2849
:1000D8006E28B228861D712872286E287D2808305F
:1000E800FF007F08FD00B2280930FF007F08FD00EF
:1000F800B2287D08B800B9013908003A03198528E3
:10010800B2283808083A03197828013A03197328DD
:10011800B228061A90289128C228061E94289528E5
:100128009128A0280F30FF007F08FB00C2280E305E
:10013800FF007F08FB00C2287B08B800B901390816
:10014800003A0319A828C22838080E3A0319962835
:10015800013A03199B28C2281014C2287D08B80048
:10016800B9013908003A0319BA28C2283808083AE8
:1001780003198D28013A0319B028C228861AC52800
:10018800C628EE28861EC928CA28C628E1280130B4
:10019800C102EE280130AF02EE287B08B800B90191
:1001A8003908003A0319D928EE2838080E3A0319F5
:1001B800CB28013A0319CE28EE287D08B800B901EA
:1001C8003908003A0319E928EE283808083A0319CB
:1001D800D128EE283C304206031DF328F428FA28DB
:1001E8000130FF007F08C107C20106293D304202E5
:1001F800031CFF28002906290130C1023B30FF00FB
:100208007F08C2003C304106031D0B290C29122926
:100218000130FF007F08AF07C1011E293D304102B0
:10022800031C172918291E290130AF023B30FF0093
:100238007F08C10018302F06031D232924292629E9
:10024800AF01302919302F02031C2B292C29302902
:100258001730FF007F08AF000A30B0000030B1004F
:100268004108B800B9013808B2003908B3000A12C9
:100278008A1175230A128A11831203133008FF00AA
:100288007F08C0000A30B0000030B1004108B80053
:10029800B9013808B2003908B3000A128A110C23D0
:1002A8000A128A11831203133008FF007F08BF0067
:1002B8000A30B0000030B1002F08B800B901380882
:1002C800B2003908B3000A128A1175230A128A117A
:1002D800831203133008FF007F08BE000A30B00005
:1002E8000030B1002F08B800B9013808B200390849
:1002F800B3000A128A110C230A128A1183120313FB
:100308003008FF007F08BD00692A05118511051214
:10031800851609307D06031D922993299429B02951
:100328000E307B06031D99299A29B029A0290B3084
:10033800FF007F08C000B0297C08B800B90139085F
:10034800003A0319A829B02938080A3A0319B0292C
:10035800013A03199B29B0294008203E84008313E1
:10036800000888000230FF007F08AE006A280511E7
:1003780085110516851209307D06031DC429C52976
:10038800C629E2290E307B06031DCB29CC29E22998
:10039800D2290B30FF007F08BF00E2297C08B80093
:1003A800B9013908003A0319DA29E22938080A3A62
:1003B8000319E229013A0319CD29E2293F08203E11
:1003C80084008313000888000330FF007F08AE0014
:1003D8006A28051185150512851209307D06031D49
:1003E800F629F7290C2AFC298817282A8813282A8D
:1003F8007C08B800B9013908003A0319042A282AE8
:1004080038080A3A0319F829013A0319FA29282A57
:100418000F307B06031D112A122A282A182A0B30AE
:10042800FF007F08BE00282A7C08B800B9013908F7
:10043800003A0319202A282A38080A3A0319282AD0
:10044800013A0319132A282A8030FF007F088805FB
:100458003E08203E840083130008FF007F088804BC
:100468000430FF007F08AE006A28051585110512C3
:10047800851209307D06031D422A432A442A602A30
:100488000F307B06031D492A4A2A602A502A0B305E
:10049800FF007F08BD00602A7C08B800B901390850
:1004A800003A0319582A602A38080A3A0319602AB8
:1004B800013A03194B2A602A3D08203E8400831321
:1004C80000088800AE01AE0A6A282E08B800B901F3
:1004D8003908003A0319712A6A283808013A0319B9
:1004E8008929033A0319BB29013A0319ED29073A67
:1004F8000319392A6A280A128A1112280C1C852A1B
:10050800862AD42A0130BA070318BB0A0030BB0771
:1005180014303A063B04031D922A932A9F2A093075
:100528007D06031D982A992A9D2A0130FF007F081D
:10053800C207BA01BB010A30F0000030F1003B08E5
:10054800F3003A08F2000A128A11D0230A128A111B
:1005580070087104031DB12AB22ACD2ABD2A0B30B6
:10056800FF007F08FC00CD2A0A30FF007F08FC004E
:10057800CD2A7C08F500F6017608003A0319C52A49
:10058800CD2A75080A3A0319B32A013A0319B82A79
:10059800CD2A3C30831203138F00B0308E000C102C
:1005A8008B1CD72AD82A012BF32A0130FF007F0899
:1005B800C107002B0130FF007F08AF07002B7B0825
:1005C800F500F6017608003A0319EB2A002B7508A6
:1005D8000E3A0319D92A013A0319DE2A002B7D089D
:1005E800F500F6017608003A0319FB2A002B750876
:1005F800083A0319E32A002B8B107A08FF007908C0
:100608008A0078088400770E8300FE0E7E0E0900AB
:1006180083120313B501B11F122B132B1A2BB00928
:10062800B109B00A0319B10AB501B50AB31F1D2BE8
:100638001E2B272BB209B309B20A0319B30A0130DA
:10064800FF007F08B506B601B70130083104031969
:100658002E2B2F2B662BB401B40A3D2B013003102F
:10066800B00DB10DFF3E031D332B0130FF007F0895
:10067800B407B11F402B412B322B01300310B60DAC
:10068800B70DFF3E031D422B31083302031D4E2BCD
:1006980030083202031C512B522B592B3008B2025E
:1006A8003108031CB303B302361401300310B10C34
:1006B800B00CFF3E031D5A2B0130B402031D652BFD
:1006C800662B412B350803196A2B6B2B702BB60947
:1006D800B709B60A0319B70A3708B1003608B000D7
:1006E800080083120313B501B31F7B2B7C2B832BCC
:1006F800B209B309B20A0319B30AB501B50AB11FA1
:10070800862B872B8C2BB009B109B00A0319B10AC3
:10071800300831040319912B922BC12BB401B40A70
:10072800A02B01300310B00DB10DFF3E031D962B19
:100738000130FF007F08B407B11FA32BA42B952B12
:1007480031083302031DAA2B30083202031CAD2BDB
:10075800AE2BB42B3008B2023108031CB303B3022A
:1007680001300310B10CB00CFF3E031DB52B013056
:10077800B402031DC02BC12BA42B35080319C52BAC
:10078800C62BCB2BB209B309B20A0319B30A330833
:10079800B1003208B0000800700871040319D52BA5
:1007A800D62B052CF401F40AE42B01300310F00DCC
:1007B800F10DFF3E031DDA2B0130FF007F08F4071F
:1007C800F11FE72BE82BD92B71087302031DEE2BC1
:1007D80070087202031CF12BF22BF82B7008F2023E
:1007E8007108031CF303F30201300310F10CF00C41
:1007F800FF3E031DF92B0130F402031D042C052CC8
:10080800E82B7308F1007208F00008007E088A00DF
:100818007F0882000A128A110A240A128A118000AB
:10082800840A04087D0603190034FF0A0319FE0A26
:100838000E2C3F3406345B344F3466346D347D34CB
:1008480007347F346F34003400340C3405340134F9
:080858000C340E340B3409349A
:02400E00713F00
:00000001FF
