:020000040000FA
:060000000A128A110C280F
:10000800FE00030EF2000A08F3000A128A11A32A5E
:100018000A128A110F2883132F30FD000230FE00C8
:10002800D430FF00203084000A128A11C5220A1237
:100038008A11BA01BB01BC01BD0183010A128A11F0
:1000480025288316031388010130850083120313C2
:100058000511851105128512200888002B08B700A4
:100068002A08B600B609B70936088E0037088F0087
:1000780090101016901606141014831603130C14FF
:10008800831203130C100B178B1741309F008E300F
:10009800831603139F00093083120313B600B60BAF
:1000A800532883120313B801B9011F151E08B9009C
:1000B800831603131E0883120313B8001F1965283B
:1000C800662862283908B7003808B6000310B70C4C
:1000D800B60C0310B70CB60C36088600003039028F
:1000E80065300319380203187A287B28802888305D
:1000F800AA001330AB003C290030390265300319DF
:100108003802031C88288928972800303902C9300A
:100118000319380203189128922897281030AA004A
:100128002730AB003C2900303902C93003193802A6
:10013800031C9F28A028AE28013039022D3003194E
:1001480038020318A828A928AE289830AA003A30FF
:10015800AB003C29013039022D3003193802031C49
:10016800B628B728C528013039029130031938025A
:100178000318BF28C028C5282030AA004E30AB007D
:100188003C2901303902913003193802031CCD286B
:10019800CE28DC2801303902F5300319380203185B
:1001A800D628D728DC28A830AA006130AB003C2923
:1001B80001303902F53003193802031CE428E52818
:1001C800F328023039025930031938020318ED2890
:1001D800EE28F3283030AA007530AB003C290230F5
:1001E8003902593003193802031CFB28FC280A2954
:1001F80002303902BD3003193802031804290529D1
:100208000A29B830AA008830AB003C2902303902EC
:10021800BD3003193802031C122913292129033080
:10022800390221300319380203181B291C292129F6
:100238004030AA009C30AB003C2903303902213001
:1002480003193802031C29292A29382903303902BD
:100258008530031938020318322933293829C83060
:10026800AA00AF30AB003C295030AA00C330AB0025
:100278000A30B2000030B3002D08B5002C08B400D5
:100288000A128A1167220A128A118312031332088A
:10029800FF007F08BD000A30B2000030B3000A300A
:1002A800F4000030F5002D08F7002C08F6000A12BB
:1002B8008A1121220A128A11750883120313B500C4
:1002C8007408B4000A128A1167220A128A1183126A
:1002D80003133208FF007F08BC000A30B200003068
:1002E800B3006430F4000030F5002D08F7002C0846
:1002F800F6000A128A1121220A128A11750883123D
:100308000313B5007408B4000A128A1167220A128E
:100318008A11831203133208FF007F08BB000A30DA
:10032800B2000030B300E830F4000330F5002D08C7
:10033800F7002C08F6000A128A1121220A128A11E3
:10034800750883120313B5007408B4000A128A11E1
:1003580067220A128A11831203133208FF007F08EA
:10036800BA00082A05118511051285168030FF008C
:100378007F0888053D08203E840083130008FF009D
:100388007F0888040230FF007F08AE005928051155
:100398008511051685128030FF007F0888053C0806
:1003A800203E840083130008FF007F088804033080
:1003B800FF007F08AE005928051185150512851222
:1003C8008030FF007F0888053B08203E84008313A7
:1003D8000008FF007F0888040430FF007F08AE0093
:1003E800592805158511051285128030FF007F08F0
:1003F80088053A08203E840083130008FF007F0820
:100408008804AE01AE0A59282E08B600B70137088D
:10041800003A0319102A59283608013A0319B6294F
:10042800033A0319CB29013A0319E029073A0319BA
:10043800F52959280A128A110C2883120313AF01CF
:10044800B0017408750403192A2A2B2A622AB101FB
:10045800B10A392A01300310F40DF50DFF3E031DD2
:100468002F2A0130FF007F08B107F51F3C2A3D2ADB
:100478002E2A01300310AF0DB00DFF3E031D3E2A9A
:1004880075087702031D4A2A74087602031C4D2A50
:100498004E2A552A7408F6027508031CF703F7025A
:1004A8002F1401300310F50CF40CFF3E031D562ADF
:1004B8000130B102031D612A622A3D2A3008F50085
:1004C8002F08F400080083120313320833040319B9
:1004D8006E2A6F2A9E2AF801F80A7D2A0130031035
:1004E800B20DB30DFF3E031D732A0130FF007F08D4
:1004F800F807B31F802A812A722A33083502031DA0
:10050800872A32083402031C8A2A8B2A912A320845
:10051800B4023308031CB503B50201300310B30C51
:10052800B20CFF3E031D922A0130F802031D9D2ADA
:100538009E2A812A3508B3003408B20008008312C5
:1005480003130C1CA82AA92ABA2A0130AC020030CD
:10055800031CAD03AD022B08F1002A08F000F009D6
:10056800F10970088E0071088F000C1073088A005A
:10057800720E8300FE0E7E0E09007E088A007F0838
:1005880082000A128A11C1220A128A118000840A82
:1005980004087D0603190034FF0A0319FE0AC52A58
:1005A8003F3406345B344F3466346D347D3407345D
:0E05B8007F346F345034C3340F342734013491
:02400E00713F00
:00000001FF
