:020000040000FA
:060000000A128A11122809
:10000800FE00030EF7000408F8000A08F90083123E
:1000180003137F08FA000A128A11A92A0A128A1100
:10002800152883133730FD000430FE003E30FF00F2
:100038002C3084000A128A112F240A128A110A12FB
:100048008A1149240A128A11FB000A128A114A24C9
:100058000A128A11FC00A001A101A201A301A401B6
:10006800A501A601A701A801A901AA01AB01FD01EB
:1000780083010A128A114028831603138801850117
:10008800861506148616061606148616831203139A
:1000980005118511051285122C0888000B16831688
:1000A800031301133C30831203138F00B0308E000A
:1000B8009010101690121010831603130C1483124C
:1000C80003130C100B178B1786196B286C28B22892
:1000D800861D6F2870286C287E28FD01B2282B0801
:1000E800FF007F08A3002A08FF007F08A200FD0187
:1000F800FD0AB2287D08BF00C0014008003A031974
:100108008628B2283F08003A03197328013A0319D0
:100118007128B2281014061A92289328C228061E9D
:10012800962897289328A0280230FF007F08FB0014
:10013800C228FB01FB0AC2287B08BF00C001400897
:10014800003A0319A828C2283F08013A0319982839
:10015800033A03199D28C2281014C2287D08BF003D
:10016800C0014008003A0319BA28C2283F08003ADB
:1001780003198E28013A0319B028C228861AC528FF
:10018800C628F228861EC928CA28C628E528FF30AE
:10019800FF007F08AB07F228FF30FF007F08AA079F
:1001A800F2287B08BF00C0014008003A0319DD2887
:1001B800F2283F08013A0319CB28033A0319D0283B
:1001C800F2287D08BF00C0014008003A0319ED2855
:1001D800F2283F08003A0319D528F2283C302B06AC
:1001E800031DF728F828FE280130FF007F08AA071A
:1001F800AB010A29AB1F012902290A29FF30FF0098
:100208007F08AA073B30FF007F08AB0064302A064E
:10021800031D0F2910291229AA01222963302A0651
:10022800031D172918291A29AB012229AA1F1D29DC
:100238001E2922296330FF007F08AA002A08031D0F
:100248002629272955292B08031D2B292C2955290F
:100258002208031D3029312945292308031D352982
:1002680036294529A301A30A4529AB01AA01552925
:100278002308FF007F08AB002208FF007F08AA00C0
:1002880055297D08BF00C0014008003A03194D29CF
:1002980055293F08003A03193929013A03193C291D
:1002A80055290A30B7000030B8002B08B900BA0148
:1002B800B91BBA030A128A1196230A128A118312E9
:1002C80003133708FF007F08A9000A30B700003081
:1002D800B8002B08B900BA01B91BBA030A128A116F
:1002E8002D230A128A11831203133708FF007F088F
:1002F800A8000A30B7000030B8002A08B900BA01CF
:10030800B91BBA030A128A1196230A128A11831298
:1003180003133708FF007F08A7000A30B700003032
:10032800B8002A08B900BA01B91BBA030A128A111F
:100338002D230A128A11831203133708FF007F083E
:10034800A600902A05118511051285167D03031D47
:10035800AE29AF29B029CF297B03031DB429B529BC
:10036800CF29BF290B30FF007F08A900051185118F
:1003780005128512CF297C08BF00C0014008003A49
:100388000319C729CF293F08003A0319CF29013A91
:100398000319B629CF2929082C3E840083130008A5
:1003A80088000230FF007F08B60068280511851113
:1003B800051685127D03031DE229E329E429032A92
:1003C8007B03031DE829E929032AF3290B30FF00E1
:1003D8007F08A8000511851105128512032A7C08DB
:1003E800BF00C0014008003A0319FB29032A3F084F
:1003F800003A0319032A013A0319EA29032A2808AB
:100408002C3E84008313000888000330FF007F0817
:10041800B600682805118515051285127D03031D90
:10042800162A172A2C2A1C2A88174C2A88134C2A81
:100438007C08BF00C0014008003A0319242A4C2A4E
:100448003F08003A0319182A013A03191A2A4C2AB4
:1004580002307B06031D312A322A4C2A3C2A0B30F3
:10046800FF007F08A70005118511051285124C2A87
:100478007C08BF00C0014008003A0319442A4C2AEE
:100488003F08003A03194C2A013A0319332A4C2A27
:100498008030FF007F08880527082C3E84008313DE
:1004A8000008FF007F0888040430FF007F08B600BA
:1004B800682805158511051285127D03031D652A17
:1004C800662A672A872A02307B06031D6C2A6D2A52
:1004D800872A772A0B30FF007F08A60005118511AF
:1004E80005128512872A7C08BF00C0014008003A1F
:1004F80003197F2A872A3F08003A0319872A013AF5
:1005080003196E2A872A26082C3E840083130008C4
:100518008800B601B60A68283608BF00C00140083E
:10052800003A0319982A68283F08013A0319A629AE
:10053800033A0319DA29013A03190E2A073A03196B
:100548005D2A68280A128A1112280C1CAC2AAD2AC6
:10055800F52A0130A0070318A10A0030A1071430BA
:1005680020062104031DB92ABA2AC52A7D03031DC2
:10057800BE2ABF2AC32AFF30FF007F08AB07A001AD
:10058800A1010A30F0000030F1002108F300200832
:10059800F2000A128A11F1230A128A1170087104F2
:1005A800031DD72AD82AEE2ADE2AFC01FC0AEE2AE5
:1005B800FC01EE2A7C08F500F6017608003A0319DA
:1005C800E62AEE2A7508003A0319D92A013A0319CE
:1005D800DC2AEE2A3C30831203138F00B0308E00E1
:1005E8000C108B1CF82AF92A222B142B0130FF003F
:1005F8007F08AB07212B0130FF007F08AA07212BBA
:100608007B08F500F6017608003A03190C2B212B1C
:100618007508013A0319FA2A033A0319FF2A212B0C
:100628007D08F500F6017608003A03191C2B212BEA
:100638007508003A0319042B212B8B107A08FF0048
:1006480079088A0078088400770E8300FE0E7E0EF3
:10065800090083120313BC01B81F332B342B3B2B27
:10066800B709B809B70A0319B80ABC01BC0ABA1F06
:100678003E2B3F2B482BB909BA09B90A0319BA0A04
:100688000130FF007F08BC06BD01BE0137083804F1
:1006980003194F2B502B872BBB01BB0A5E2B013054
:1006A8000310B70DB80DFF3E031D542B0130FF009A
:1006B8007F08BB07B81F612B622B532B0130031037
:1006C800BD0DBE0DFF3E031D632B38083A02031D06
:1006D8006F2B37083902031C722B732B7A2B3708C0
:1006E800B9023808031CBA03BA023D1401300310DA
:1006F800B80CB70CFF3E031D7B2B0130BB02031D5A
:10070800862B872B622B3C0803198B2B8C2B912B68
:10071800BD09BE09BD0A0319BE0A3E08B8003D0856
:10072800B700080083120313BC01BA1F9C2B9D2B32
:10073800A42BB909BA09B90A0319BA0ABC01BC0A37
:10074800B81FA72BA82BAD2BB709B809B70A0319EF
:10075800B80A370838040319B22BB32BE22BBB01B4
:10076800BB0AC12B01300310B70DB80DFF3E031DA6
:10077800B72B0130FF007F08BB07B81FC42BC52B60
:10078800B62B38083A02031DCB2B37083902031C55
:10079800CE2BCF2BD52B3708B9023808031CBA0348
:1007A800BA0201300310B80CB70CFF3E031DD62B5C
:1007B8000130BB02031DE12BE22BC52B3C080319BA
:1007C800E62BE72BEC2BB909BA09B90A0319BA0ABF
:1007D8003A08B8003908B70008007008710403190E
:1007E800F62BF72B262CF401F40A052C0130031004
:1007F800F00DF10DFF3E031DFB2B0130FF007F08BC
:10080800F407F11F082C092CFA2B71087302031D39
:100818000F2C70087202031C122C132C192C700850
:10082800F2027108031CF303F30201300310F10C08
:10083800F00CFF3E031D1A2C0130F402031D252C79
:10084800262C092C7308F1007208F00008007E08B5
:100858008A007F0882000A128A112B240A128A1140
:100868008000840A04087D0603190034FF0A03196E
:10087800FE0A2F2C3F3406345B344F3466346D3413
:0E0888007D3407347F346F3401340134013481
:02400E00713F00
:00000001FF
