:020000040000FA
:060000000A128A11E82F2C
:100922000A128A11BE240A128A1108000A128A11B6
:10093200CB240A128A1183160313111408000A1217
:100942008A11CB240A128A11831603131115080087
:100952000A128A11CB240A128A11831603139116E2
:10096200111608003F3406345B344F3466346D345C
:100972007D3407347F346F340134283083120313FB
:100982009400831603139101940113309300871589
:1009920007160800831603131419D02CD12CCB2C64
:1009A20011081F39031DD62CD72CCB2C0800F000C0
:1009B2000A128A11CB240A128A11700883120313B5
:1009C20093000A128A11CB240A128A1108007E08A7
:1009D2008A007F0882000A128A11E8240A128A1108
:1009E2008000840A04087D0603190034FF0A0319F3
:1009F200FE0AEC2C0A128A11CB240A128A118316DF
:100A0200031391150A128A11CB240A128A11831236
:100A120003131308FF007F08F0000A128A11A924A9
:100A22000A128A1170080800F3000A128A11972428
:100A32000A128A1173080A128A11D8240A128A1118
:100A420071080A128A11D8240A128A1172080A122B
:100A52008A11D8240A128A110A128A11A0240A12AF
:100A62008A110800F2000A128A1197240A128A11C6
:100A72007208FE39FF007F08F30073080A128A1118
:100A8200D8240A128A1171080A128A11D8240A1269
:100A92008A110A128A1197240A128A1172080138DD
:100AA200FF007F08F30073080A128A11D8240A1281
:100AB2008A110A128A11FB240A128A11FF007F0886
:100AC200F3000A128A11A0240A128A11730808007C
:100AD200F501F31F6D2D6E2D752DF209F309F20A42
:100AE2000319F30AF501F50AF11F782D792D7E2DF0
:100AF200F009F109F00A0319F10A700871040319E7
:100B0200832D842DB32DF401F40A922D01300310AC
:100B1200F00DF10DFF3E031D882D0130FF007F080F
:100B2200F407F11F952D962D872D71087302031D71
:100B32009C2D70087202031C9F2DA02DA62D7008FB
:100B4200F2027108031CF303F30201300310F10CEB
:100B5200F00CFF3E031DA72D0130F402031DB22D40
:100B6200B32D962D75080319B72DB82DBD2DF20999
:100B7200F309F20A0319F30A7308F1007208F0008C
:100B82000800F501F11FC62DC72DCE2DF009F10980
:100B9200F00A0319F10AF501F50AF31FD12DD22D3E
:100BA200DB2DF209F309F20A0319F30A0130FF00FF
:100BB2007F08F506F601F701700871040319E22DAA
:100BC200E32D1A2EF401F40AF12D01300310F00D79
:100BD200F10DFF3E031DE72D0130FF007F08F407F2
:100BE200F11FF42DF52DE62D01300310F60DF70D52
:100BF200FF3E031DF62D71087302031D022E7008BD
:100C02007202031C052E062E0D2E7008F2027108C8
:100C1200031CF303F302761401300310F10CF00C01
:100C2200FF3E031D0E2E0130F402031D192E1A2E53
:100C3200F52D750803191E2E1F2E242EF609F7090D
:100C4200F60A0319F70A7708F1007608F00008009F
:100C5200831603138801850183120313051185117D
:100C620005128512200888008316031386150616BE
:100C72000A128A1191240A128A11F101A0300A1271
:100C82008A1133250A128A11FF007F088312031387
:100C9200B10007303106031D4F2E502E752EF10183
:100CA200F10AA0300A128A1133250A128A11FF00B2
:100CB2007F0883120313B1003108FF007F08B700D9
:100CC2000230FF007F08F100A0300A128A1133259A
:100CD2000A128A11FF007F0883120313B100310840
:100CE200FF007F08B600772EB701B601AB01AC0159
:100CF2000030B0000030AF000030AE000030AD0078
:100D020090302B06031D892E2C03031D892E8A2E5B
:100D1200902E0130FF007F08B707AB01AC016330B2
:100D22003706031D952E962E9B2E0130FF007F085D
:100D3200B607B70163303606031DA02EA12EA22EE0
:100D4200B601061AA52EA62ED32E061EA92EAA2E4F
:100D5200A62EF1010730FF007F08F200A0300A1230
:100D62008A1115250A128A11F101F10A831203135D
:100D72003708FF007F08F200A0300A128A111525F9
:100D82000A128A110230FF007F08F1008312031356
:100D92003608FF007F08F200A0300A128A111525DA
:100DA2000A128A11831203138619D82ED92EEC2E19
:100DB200E82E0130AD07003003180130AE070030D5
:100DC20003180130AF07003003180130B007861D49
:100DD200EB2EEC2EDA2E3008031DFF2E03302F02ED
:100DE200031DFB2E00302E02031DFB2E00302D02B0
:100DF200031DFB2E031CFE2EFF2E0A2FB701B60188
:100E02000030B0000030AF000030AE000030AD0066
:100E12002A2F30082F042E042D040319112F122F0C
:100E22002A2F3008031D242F02302F02031D212FE9
:100E3200FF302E02031D212FFF302D02031D212F13
:100E42000318242F252F2A2F0130FF007F08B70710
:100E5200012F0A30F0000030F1003708F800F901E4
:100E62007808F2007908F3000A128A1169250A1239
:100E72008A117008FF007F0883120313B5000A303D
:100E8200F0000030F1003708F800F9017808F200AC
:100E92007908F3000A128A11C2250A128A1170080F
:100EA200FF007F0883120313B4000A30F000003001
:100EB200F1003608F800F9017808F2007908F30029
:100EC2000A128A1169250A128A117008FF007F0826
:100ED20083120313B3000A30F0000030F100360829
:100EE200F800F9017808F2007908F3000A128A1171
:100EF200C2250A128A117008FF007F0883120313A9
:100F0200B200BD2F05118511051285163508203E48
:100F120084008313000888000230FF007F08AA00C3
:100F2200D32F05118511051685123408203E840041
:100F32008313000888000330FF007F08AA00D32F24
:100F420005118515051285123308203E840083138E
:100F5200000888000430FF007F08AA00D32F05157F
:100F62008511051285123208203E84008313000881
:100F72008800AA01AA0AD32F2A08F800F9017908E1
:100F8200003A0319C52FD32F7808013A0319832F8A
:100F9200033A0319922F013A0319A12F073A0319B1
:100FA200B02FD32F0330F9009730F800F80BD72F6A
:100FB200F90BD72FDC2F013083120313AB07031871
:100FC200AC0A0030AC07812E0A128A110028831362
:100FD2002B30FD000430FE00B330FF0020308400CF
:100FE2000A128A11EC240A128A11B201B301B40165
:0E0FF200B501B601B70183010A128A11292E3A
:02400E00713F00
:00000001FF
