:020000040000FA
:060000000A128A11122809
:10000800FE00030EF7000408F8000A08F90083123E
:1000180003137F08FA000A128A11FB290A128A11AF
:10002800152883132C30FD000230FE009A30FF00A3
:10003800203084000A128A118B220A128A110A12AD
:100048008A11A6220A128A11FC00B601B701B8016A
:10005800B901BA01BB01BC01BD01FB0183010A1250
:100068008A11362883160313880185018312031326
:100078000511851105128512200888003C308F0073
:10008800B0308E00901010169012061410148316BB
:1000980003130C14831203130C100B178B173C302B
:1000A8003D06031D582859285E280130FF007F08A7
:1000B800BC07BD013C303C06031D63286428692841
:1000C8000130FF007F08AB07BC0118302B06031D69
:1000D8006E286F287028AB010A30AC000030AD00E4
:1000E8003C08B400B5013408AE003508AF000A1268
:1000F8008A11A0210A128A11831203132C08FF0007
:100108007F08BB000A30AC000030AD003C08B400EA
:10011800B5013408AE003508AF000A128A1137213C
:100128000A128A11831203132C08FF007F08BA00F1
:100138000A30AC000030AD002B08B400B50134081B
:10014800AE003508AF000A128A11A0210A128A11DE
:10015800831203132C08FF007F08B9000A30AC0093
:100168000030AD002B08B400B5013408AE003508E6
:10017800AF000A128A1137210A128A118312031357
:100188002C08FF007F08B8001E29051185110512EB
:1001980085168030FF007F0888053B08203E8400D4
:1001A80083130008FF007F0888040230FF007F08DF
:1001B800AA00532805118511051685123A08203E14
:1001C80084008313000888000330FF007F08AA001A
:1001D800532805118515051285123908203E84001B
:1001E800831300088800FC2888170C2988130C2919
:1001F8007C08B400B5013508003A031904290C2914
:100208003408003A0319F828013A0319FA280C2986
:100218000430FF007F08AA00532805158511051230
:1002280085123808203E8400831300088800AA013C
:10023800AA0A53282A08B400B5013508003A031958
:10024800262953283408013A0319C928033A0319FF
:10025800DE28013A0319ED28073A03191129532812
:100268000A128A11122883120313B101AD1F3D2906
:100278003E294529AC09AD09AC0A0319AD0AB101FB
:10028800B10AAF1F482949295229AE09AF09AE0A58
:100298000319AF0A0130FF007F08B106B201B301AC
:1002A8002C082D04031959295A299129B001B00A9B
:1002B800682901300310AC0DAD0DFF3E031D5E290A
:1002C8000130FF007F08B007AD1F6B296C295D293D
:1002D80001300310B20DB30DFF3E031D6D292D082B
:1002E8002F02031D79292C082E02031C7C297D2945
:1002F80084292C08AE022D08031CAF03AF02321468
:1003080001300310AD0CAC0CFF3E031D85290130F4
:10031800B002031D902991296C29310803199529E8
:1003280096299B29B209B309B20A0319B30A3308FB
:10033800AD003208AC00080083120313B101AF1FEF
:10034800A629A729AE29AE09AF09AE0A0319AF0A33
:10035800B101B10AAD1FB129B229B729AC09AD095C
:10036800AC0A0319AD0A2C082D040319BC29BD29B0
:10037800EC29B001B00ACB2901300310AC0DAD0D4A
:10038800FF3E031DC1290130FF007F08B007AD1FE4
:10039800CE29CF29C0292D082F02031DD5292C08C5
:1003A8002E02031CD829D929DF292C08AE022D08D2
:1003B800031CAF03AF0201300310AD0CAC0CFF3EC1
:1003C800031DE0290130B002031DEB29EC29CF29D8
:1003D80031080319F029F129F629AE09AF09AE0A47
:1003E8000319AF0A2F08AD002E08AC0008000C1C3A
:1003F800FE29FF29422A0130B6070318B70A003040
:10040800B707143036063704031D0B2A0C2A122AA4
:100418000130FF007F08BD07B601B7010A30F000C0
:100428000030F1003708F3003608F2000A128A118A
:100438004D220A128A1170087104031D242A252AE4
:100448003B2A2B2AFC01FC0A3B2AFC013B2A7C089C
:10045800F500F6017608003A0319332A3B2A750895
:10046800003A0319262A013A0319292A3B2A3C3063
:10047800831203138F00B0308E000C107A08FF002F
:1004880079088A0078088400770E8300FE0E7E0EB5
:100498000900700871040319522A532A822AF401A8
:1004A800F40A612A01300310F00DF10DFF3E031D1F
:1004B800572A0130FF007F08F407F11F642A652AD4
:1004C800562A71087302031D6B2A70087202031CF6
:1004D8006E2A6F2A752A7008F2027108031CF3034A
:1004E800F30201300310F10CF00CFF3E031D762AD5
:1004F8000130F402031D812A822A652A7308F1005B
:100508007208F00008007E088A007F0882000A123C
:100518008A1187220A128A118000840A04087D063B
:1005280003190034FF0A0319FE0A8B2A3F340634E4
:100538005B344F3466346D347D3407347F346F3424
:0605480001340C34013403
:02400E00713F00
:00000001FF
