:020000040000FA
:060000000A128A11E82F2C
:100A6A003F3406345B344F3466346D347D34073496
:100A7A007F346F340134F0007008831203178D003D
:100A8A00831603178C130C14831203170C08FF0028
:100A9A007F08F100710808007E088A007F0882003A
:100AAA000A128A1151250A128A118000840A04083E
:100ABA007D0603190034FF0A0319FE0A552DF100B9
:100ACA00831603178C186A2D6B2D652D71088312F6
:100ADA0003178D0070088C00831603178C130C15EE
:100AEA008B1355308D00AA308D008C148B170C1186
:100AFA008C100800F501F31F832D842D8B2DF2092C
:100B0A00F309F20A0319F30AF501F50AF11F8E2D0A
:100B1A008F2D942DF009F109F00A0319F10A7008D2
:100B2A0071040319992D9A2DC92DF401F40AA82DDF
:100B3A0001300310F00DF10DFF3E031D9E2D013013
:100B4A00FF007F08F407F11FAB2DAC2D9D2D710816
:100B5A007302031DB22D70087202031CB52DB62D47
:100B6A00BC2D7008F2027108031CF303F302013072
:100B7A000310F10CF00CFF3E031DBD2D0130F402F1
:100B8A00031DC82DC92DAC2D75080319CD2DCE2DE9
:100B9A00D32DF209F309F20A0319F30A7308F100D3
:100BAA007208F0000800F501F11FDC2DDD2DE42D9F
:100BBA00F009F109F00A0319F10AF501F50AF31F20
:100BCA00E72DE82DF12DF209F309F20A0319F30AC8
:100BDA000130FF007F08F506F601F701700871047D
:100BEA000319F82DF92D302EF401F40A072E0130DD
:100BFA000310F00DF10DFF3E031DFD2D0130FF0026
:100C0A007F08F407F11F0A2E0B2EFC2D013003106A
:100C1A00F60DF70DFF3E031D0C2E71087302031D1E
:100C2A00182E70087202031C1B2E1C2E232E70080D
:100C3A00F2027108031CF303F30276140130031065
:100C4A00F10CF00CFF3E031D242E0130F402031DAB
:100C5A002F2E302E0B2E75080319342E352E3A2ED0
:100C6A00F609F709F60A0319F70A7708F100760870
:100C7A00F000080083160313880185018312031309
:100C8A0005118511051285122008880083160313A1
:100C9A008614861500300A128A1140250A128A1112
:100CAA00FF007F0883120313B1003103031D5E2E78
:100CBA005F2E7E2E01300A128A1140250A128A11ED
:100CCA00FF007F0883120313B1003108FF007F0879
:100CDA00B70002300A128A1140250A128A11FF004F
:100CEA007F0883120313B1003108FF007F08B600A2
:100CFA00802EB701B601AB01AC010030B000003064
:100D0A00AF000030AE000030AD0090302B06031D5E
:100D1A00922E2C03031D922E932E992E0130FF0042
:100D2A007F08B707AB01AC0163303706031D9E2E5F
:100D3A009F2EA42E0130FF007F08B607B70163304B
:100D4A003606031DA92EAA2EAB2EB6018618AE2E84
:100D5A00AF2ED32E861CB22EB32EAF2EF001F00A80
:100D6A0000300A128A1164250A128A1183120313A7
:100D7A003708FF007F08F00001300A128A11642543
:100D8A000A128A11831203133608FF007F08F00043
:100D9A0002300A128A1164250A128A118312031375
:100DAA008619D82ED92EEC2EE82E0130AD07003048
:100DBA0003180130AE07003003180130AF070030C6
:100DCA0003180130B007861DEB2EEC2EDA2E300800
:100DDA00031DFF2E03302F02031DFB2E00302E02AF
:100DEA00031DFB2E00302D02031DFB2E031CFE2EBD
:100DFA00FF2E0A2FB701B6010030B0000030AF0055
:100E0A000030AE000030AD002A2F30082F042E0427
:100E1A002D040319112F122F2A2F3008031D242FF6
:100E2A0002302F02031D212FFF302E02031D212F16
:100E3A00FF302D02031D212F0318242F252F2A2FBF
:100E4A000130FF007F08B707012F0A30F000003099
:100E5A00F1003708F800F9017808F2007908F30080
:100E6A000A128A117F250A128A117008FF007F0868
:100E7A0083120313B5000A30F0000030F10037087E
:100E8A00F800F9017808F2007908F3000A128A11C9
:100E9A00D8250A128A117008FF007F0883120313EB
:100EAA00B4000A30F0000030F1003608F800F90109
:100EBA007808F2007908F3000A128A117F250A12CB
:100ECA008A117008FF007F0883120313B3000A30E7
:100EDA00F0000030F1003608F800F9017808F20055
:100EEA007908F3000A128A11D8250A128A117008A1
:100EFA00FF007F0883120313B200BD2F051185116D
:100F0A00051285163508203E8400831300088800E0
:100F1A000230FF007F08AA00D32F0511851105169C
:100F2A0085123408203E84008313000888000330A9
:100F3A00FF007F08AA00D32F051185150512851217
:100F4A003308203E84008313000888000430FF0021
:100F5A007F08AA00D32F05158511051285123208BC
:100F6A00203E8400831300088800AA01AA0AD32F0E
:100F7A002A08F800F9017908003A0319C52FD32F76
:100F8A007808013A0319832F033A0319922F013A79
:100F9A000319A12F073A0319B02FD32F0330F900F1
:100FAA009730F800F80BD72FF90BD72FDC2F013029
:100FBA0083120313AB070318AC0A0030AC078A2E5E
:100FCA000A128A11002883132B30FD000530FE0017
:100FDA003530FF00203084000A128A1155250A1282
:100FEA008A11B201B301B401B501B601B701830197
:060FFA000A128A113F2ECD
:02400E00713F00
:00000001FF
