:020000040000FA
:060000000A128A1110280B
:10000800FE00030EF0000A08F100831203137F08B4
:10001800F2000A168A111A290A128A11132883175C
:10002800D930FD000830FE000C30FF00903084000D
:100038000A168A1104200A128A116F30FD00123044
:10004800FE00C930FF00103084000A168A1104200F
:100058000A128A118313E830FD001230FE002630A0
:10006800FF00A03084000A168A1104200A128A119F
:100078006130FD001F30FE008A30FF0051308400DF
:100088000A168A1104200A128A1183160313E8013A
:10009800E901EA01EB01EC01ED01EE018312031322
:1000A800E101E201E301F801F901FA0183010A1211
:1000B8008A15822C101404304C06031D6428652808
:1000C800BB280A168A1176210A128A11003A031DE2
:1000D8006E286F287C2801300A168A118B230A1291
:1000E8008A110A30FF007F0883120313D100B72852
:1000F800013083120313BA023A08303EFF007F082A
:1001080083160317A800A83083120313A300013035
:10011800A400A501A50AA6010A168A112B200A1215
:100128008A11063083120313B8001330B700AD30BC
:10013800B600B60B9D28B70B9D28B80B9D2801303B
:100148000A168A118B230A128A11B43083120313F8
:10015800A3000030A400A501A601A60A0A168A1168
:100168002B200A128A1183120313CC01CF283230B4
:100178006206031DC028C128CF28CC01E201013046
:100188000A168A118B230A128A110830FF007F0889
:1001980083120313D1004C08063EFF007F08F600C7
:1001A80001300A168A1113200A128A110F300A1612
:1001B8008A118B230A128A11122F0C300A168A11FF
:1001C8008B230A128A11831203135508031DED2885
:1001D800EE28F8280930FF007F08D1000F30FF0013
:1001E8007F08D5001010122F10140A30F3000030C9
:1001F800F4005508B600B7013608F5003708F600D0
:100208000A168A1156240A128A117308303EFF0012
:100218007F0883160313AD000A30F3000030F400A2
:10022800831203135508B600B7013608F5003708DE
:10023800F6000A168A116E220A128A117308303ED5
:10024800FF007F0883160313AE00C930831203131F
:10025800A3000130A400A501A6010A168A112B20CB
:100268000A128A11A53083120313A3000030A400D8
:10027800A501A50AA6010A168A112B200A128A11BD
:10028800122F10100C300A168A118B230A128A11A9
:10029800F60100300A168A1113200A128A112A3030
:1002A8000A168A1128230A128A1183120313610875
:1002B800803A7C3E0318612962299A290D30FF0093
:1002C8007F08F30061080A168A15D3270A128A11D3
:1002D800103E83120313A3000130A400A5010230CD
:1002E800FF007F08A6000A168A112B200A128A111D
:1002F8000D30FF007F08F3008312031361080A160C
:100308008A15D3270A128A111D3E83120313A300EC
:100318000130A400A501A50A0230FF007F08A6004D
:100328000A168A112B200A128A11122F0D30FF008B
:100338007F08F30061080A168A15D3270A128A1162
:10034800103E83120313A3000130A400A50102305C
:10035800FF007F08A6000A168A112B200A128A11AC
:10036800122F10100C300A168A118B230A128A11C8
:10037800D83083120313A3000030A400A501A601FE
:100388000A168A112B200A128A11F60101300A1660
:100398008A1113200A128A111030F3000030F40079
:1003A800831203135008B600B7013608F500370862
:1003B800F6000A168A1156240A128A117308FF00D9
:1003C8007F0883120313CF004F08031DEC29ED2982
:1003D8001C2AE230A3000030A400A501A50AA6014A
:1003E8000A168A112B200A128A11D8308312031395
:1003F800A3000030A400A501A50A0330FF007F0870
:10040800A6000A168A112B200A128A11C5308312F7
:100418000313A3000130A400A501A50A0930FF00B9
:100428007F08A6000A168A112B200A128A11122F99
:100438001030F3000030F4004E08F500F601F51B0B
:10044800F6030A168A1156240A128A117308FF0045
:100458007F0883120313CF004F08303E0A168A1113
:1004680028230A128A11831203134E08263EFF001E
:100478007F08F400A1300A168A11A8210A128A11ED
:10048800FF007F0883120313CF004F080A128A1156
:10049800D5270A128A11831203134E08273EFF003C
:1004A8007F08F400A1300A168A11A8210A128A11BD
:1004B800FF007F0883120313BF004E08283EFF0089
:1004C8007F08F400A1300A168A11A8210A128A119D
:1004D800FF007F0883120313C000C1013F30A3004F
:1004E8000030A400A501A50A0E30FF007F08A60071
:1004F8000A168A112B200A128A11831203134E0836
:10050800253EFF007F08F400A1300A168A11A821B1
:100518000A128A11FF007F0883120313DD004E08B8
:10052800243EFF007F08F400A1300A168A11A82192
:100538000A128A11FF007F0883120313DC004E0899
:10054800233EFF007F08F400A1300A168A11A82173
:100558000A128A11FF007F0883120313DA004E087B
:10056800223EFF007F08F400A1300A168A11A82154
:100578000A128A11FF007F0883120313D9004E085C
:10058800213EFF007F08F400A1300A168A11A82135
:100598000A128A11FF007F0883120313D7004E083E
:1005A800203EFF007F08F400A1300A168A11A82116
:1005B8000A128A11FF007F0883120313D6000A1655
:1005C8008A11C82ED001F401F40A5008FF007F08F0
:1005D800F500A0300A168A1176200A128A118312B1
:1005E8000313CE010A168A1143200A128A11013018
:1005F8000A168A118B230A128A11B930831203133F
:10060800A3000130A400A501A6010A168A112B2017
:100618000A128A11C33083120313A3000030A40006
:10062800A501A50A0230FF007F08A6000A168A1154
:100638002B200A128A110B3083120313B8002630BC
:10064800B7005D30B600B60B272BB70B272BB80BBE
:10065800272B01300A168A118B230A128A110830B7
:10066800FF007F0883120313D100122FF401F40A4C
:10067800A1300A168A11A8210A128A11FF007F08E0
:1006880083120313CF001030F3000030F4004F083A
:10069800B600B7013608F5003708F6000A168A11C1
:1006A80056240A128A1173087404031D5C2B5D2BEF
:1006B800E22B4E300A128A11F4270A128A116F307F
:1006C8000A128A11F4270A128A1120300A128A1192
:1006D800F4270A128A114C300A128A11F4270A12D6
:1006E8008A116F300A128A11F4270A128A116730A8
:1006F8000A128A11F4270A128A1173300A128A110F
:10070800F4270A128A1120300A128A11F4270A12D1
:100718008A1141300A128A11F4270A128A11763096
:100728000A128A11F4270A128A1161300A128A11F0
:10073800F4270A128A1169300A128A11F4270A1258
:100748008A114C300A128A11F4270A128A11613070
:100758000A128A11F4270A128A1162300A128A11BF
:10076800F4270A128A116C300A128A11F4270A1225
:100778008A1165300A128A11F4270A128A112E305A
:100788000A128A11F4270A128A112E300A128A11C3
:10079800F4270A128A112E300A128A11F4270A1233
:1007A8008A112E300A128A11F4270A128A110A3085
:1007B8000A128A11F4270A128A11292D83120313A7
:1007C800CD010C2D831203134D08263EFF007F0830
:1007D800F400A1300A168A11A8210A128A11FF0012
:1007E8007F0883120313CF004F080319FC2BFD2B3E
:1007F800292D4F0A031D012C022C032C292D103002
:10080800F3000030F4004D08B600B7013608F500D3
:100818003708F6000A168A1156240A128A11730834
:10082800303E0A128A11F4270A128A1120300A125D
:100838008A11F4270A128A11831203134D08253EE0
:10084800FF007F08F400A1300A168A11A8210A12B5
:100858008A11FF007F0883120313DD004D08243E30
:10086800FF007F08F400A1300A168A11A8210A1295
:100878008A11FF007F0883120313DC004D08233E12
:10088800FF007F08F400A1300A168A11A8210A1275
:100898008A11FF007F0883120313DA004D08223EF5
:1008A800FF007F08F400A1300A168A11A8210A1255
:1008B8008A11FF007F0883120313D9004D08213ED7
:1008C800FF007F08F400A1300A168A11A8210A1235
:1008D8008A11FF007F0883120313D7004D08203EBA
:1008E800FF007F08F400A1300A168A11A8210A1215
:1008F8008A11FF007F0883120313D60056080A12D4
:100908008A11F4270A128A118312031357080A124C
:100918008A11F4270A128A113A300A128A11F42726
:100928000A128A118312031359080A128A11F4272A
:100938000A128A11831203135A080A128A11F42719
:100948000A128A113A300A128A11F4270A128A11F5
:10095800831203135C080A128A11F4270A128A11F7
:10096800831203135D080A128A11F4270A128A11E6
:1009780020300A128A11F4270A128A1183120313EB
:100988004F080A168A159A270A128A1120300A1265
:100998008A11F4270A128A11831203134D08273E7D
:1009A800FF007F08F400A1300A168A11A8210A1254
:1009B8008A11FF007F0883120313BF004D08283EE9
:1009C800FF007F08F400A1300A168A11A8210A1234
:1009D8008A11FF007F0883120313C0003F080A1220
:1009E8008A11F4270A128A118312031340080A1283
:1009F8008A11F4270A128A110A300A128A11F42776
:100A08000A128A111030FF007F0883120313CD07E2
:100A18001030F3000030F4004D08B600B701360876
:100A2800F5003708F6000A168A1156240A128A11A8
:100A38007408803AFF0080307F02031D252D0A309C
:100A48007302031C282D292DE62B01300A168A1162
:100A58008B230A128A11D83083120313A3000030A3
:100A6800A400A501A6010A168A112B200A128A11D0
:100A780020300A168A1128230A128A1144300A16CD
:100A88008A1128230A128A116F300A168A1128231C
:100A98000A128A1177300A168A1128230A128A1133
:100AA8006E300A168A1128230A128A116C300A1627
:100AB8008A1128230A128A116F300A168A112823EC
:100AC8000A128A1161300A168A1128230A128A1119
:100AD80064300A168A1128230A128A1165300A1608
:100AE8008A1128230A128A1164300A168A112823C7
:100AF8000A128A11C33083120313A3000030A40022
:100B0800A501A50AA6010A168A112B200A128A1124
:100B1800153083120313B8004B30B700BD30B60050
:100B2800B60B942DB70B942DB80B942D9B2D01303B
:100B38000A168A118B230A128A110A30FF007F08CD
:100B480083120313D100122F1014F60100300A1675
:100B58008A1113200A128A1154300A168A1128237E
:100B68000A128A1149300A168A1128230A128A1190
:100B78004D300A168A1128230A128A1145300A169E
:100B88008A1128230A128A1120300A168A1128236A
:100B98000A128A1128300A168A1128230A128A1181
:100BA80048300A168A1128230A128A1148300A1670
:100BB8008A1128230A128A113A300A168A11282320
:100BC8000A128A114D300A168A1128230A128A112C
:100BD8004D300A168A1128230A128A113A300A1649
:100BE8008A1128230A128A1153300A168A112823D7
:100BF8000A128A1153300A168A1128230A128A11F6
:100C080029300A168A1128230A128A11831203131B
:100C18005203031D102E112E702E5403031D152E82
:100C2800162E472E831603175A08FF007F088312D3
:100C38000313DD00831603175908FF007F0883128A
:100C48000313DC00831603175C08FF007F08831278
:100C58000313DA00831603175B08FF007F0883126B
:100C68000313D900831603175E08FF007F08831259
:100C78000313D700831603175D08FF007F0883124C
:100C88000313D600D92E2030FF007F08DD00203066
:100C9800FF007F08DC00831603175C08FF007F084D
:100CA80083120313DA00831603175B08FF007F081B
:100CB80083120313D900831603175E08FF007F0809
:100CC80083120313D700831603175D08FF007F08FC
:100CD80083120313D600D92E02305206031D752E37
:100CE800762EA52E5403031D7A2E7B2E7C2E162ECF
:100CF800831603175A08FF007F0883120313DD00C9
:100D0800831603175908FF007F0883120313DC00BA
:100D18002030FF007F08DA002030FF007F08D9006C
:100D2800831603175E08FF007F0883120313D7009A
:100D3800831603175D08FF007F0883120313D6008C
:100D4800D92E03305206031DAA2EAB2ED92E5403DA
:100D5800031DAF2EB02EB12E162E831603175A0878
:100D6800FF007F0883120313DD0083160317590859
:100D7800FF007F0883120313DC00831603175C0847
:100D8800FF007F0883120313DA00831603175B083A
:100D9800FF007F0883120313D9002030FF007F086B
:100DA800D7002030FF007F08D6005630A30000305F
:100DB800A400A501A50AA6010A168A112B200A1269
:100DC8008A11122F101432306206031DEC2EED2EFC
:100DD800FB2EE301E20101300A168A118B230A1265
:100DE8008A110A30FF007F0883120313D1006308B9
:100DF800FF007F08F60001300A168A1113200A1234
:100E08008A110F300A168A118B230A128A110430AC
:100E1800831203136306031D122F152F0A128A1556
:100E2800682D0C300A168A118B230A128A11053094
:100E3800FF007F08F400831603136808FF007F088B
:100E4800F500A0300A168A1176200A128A11063097
:100E5800FF007F08F400831603136908FF007F086A
:100E6800F500A0300A168A1176200A128A11073076
:100E7800FF007F08F400831603136A08FF007F0849
:100E8800F500A0300A168A1176200A128A11083055
:100E9800FF007F08F400831603136B08FF007F0828
:100EA800F500A0300A168A1176200A128A118312D8
:100EB8000313E30101300A168A118B230A128A11DF
:100EC800BA3083120313A3000030A400A501A601C1
:100ED8000A168A112B200A128A11D03083120313A2
:100EE800A3000030A400A5010930FF007F08A60078
:100EF8000A168A112B200A128A11C330831203138F
:100F0800A3000030A400A501A50A0230FF007F0855
:100F1800A6000A168A112B200A128A11153083128C
:100F28000313B8004B30B700BD30B600B60B9A2F8C
:100F3800B70B9A2FB80B9A2FA12F01300A168A11D6
:100F48008B230A128A11A12D831203135108B600AC
:100F5800B7013708003A0319B22F122F3608083A9A
:100F68000319D22F013A03195E28033A03194529B8
:100F7800013A0319B529073A0319E62A013A031970
:100F88003A2B033A0319A82D013A0319E62E113A10
:100F98000319E128122F0A128A1110280A168A1139
:100FA800F52D83120313A7000330FF007F08F30019
:100FB80027080A168A15D3270A128A11513E831266
:100FC8000313A3000130A400A501A50A0B30FF00FC
:100FD8007F08A6000A168A112B200A128A11080017
:100FE800F30083160313981CFA2FFB2FF52F7308B1
:080FF8008312031399000800A5
:101004000A168A1526270A128A15831603139116BF
:10101400111608005334753400344D346F340034E1
:1010240054347534003457346534003454346834DB
:1010340000344634723400345334613400340034A0
:10104400003400343334203441347434743465341B
:101054006D34703474342034723465346D346134D6
:1010640069346E3400344C346F3467347334203450
:1010740043346C34653461347234653464342E34EE
:101084002E342E34003459346F34753420346134A2
:1010940072346534203442346C346F3463346B34CA
:1010A4006534643400340830831203135106031D7D
:1010B4005C285D288928003083120313061A013046
:1010C4000A168A15E8270A128A15003A03196B28AA
:1010D4006C285D2801300A168A118B230A128A159E
:1010E400B43083120313A3000030A400A501A601A9
:1010F400A60A0A168A112B200A128A150930FF0043
:101104007F0883120313D1000A128A11A82F093011
:101114005106031D8E288F28B32800308312031331
:10112400061A01300A168A15E8270A128A15003AA7
:1011340003199D289E288F283030FF008312031343
:101144004C08E83E84007F08831380000130FF00D0
:101154007F08CC072A300A168A1128230A128A1516
:1011640086280A305106031DB828B9280929C2283F
:10117400013083120313BD070318BE0A0030BE07F3
:101184000030061A01300A168A15E8270A128A1551
:10119400003A0319CE28CF28BA280130831203134A
:1011A4003E02F43003193D020318D928DA28F42842
:1011B40001300A168A118B230A128A150130FF00A6
:1011C4007F0883120313E1076108803A7B3E031C06
:1011D400EC28EF280A168A11F42D0430FF007F084A
:1011E400E100862801300A168A118B230A128A1517
:1011F4000C300A168A118B230A128A150830FF0054
:101204007F0883120313D100BD01BE0186280B3071
:101214005106031D0E290F294D2918290130831267
:101224000313BD070318BE0A0030BE070030061AB8
:1012340001300A168A15E8270A128A15003A03199A
:101244002429252910290130831203133E02F43086
:1012540003193D0203182F2930294029F030FF00DB
:101264007F08CE07CE1F372938293929CE0101300E
:101274000A168A118B230A128A15862801300A1647
:101284008A118B230A128A150A30FF007F08831201
:101294000313D10006290F305106031D5229552985
:1012A4000A168A11CB2D003083120313061A01305B
:1012B4000A168A15E8270A128A15003A03196329BF
:1012C400642955293030FF00831203136308E83E74
:1012D40084007F08831380000130FF007F08E30748
:1012E4002A300A168A1128230A128A158312031334
:1012F400E20186281E30FF007F08D10000308619E5
:1013040001300A168A15E8270A128A15003A031DC5
:101314008C298F290A128A156F2C08308312031323
:101324005106031D96299729C129003083120313FE
:10133400861901300A168A15E8270A128A15003A16
:101344000319A529A629972901300A168A118B2386
:101354000A128A15B43083120313A3000030A400C8
:10136400A501A601A60A0A168A112B200A128A15BB
:101374000930FF007F0883120313D1008C29093040
:101384005106031DC629C729EE2900308312031311
:10139400861901300A168A15E8270A128A15003AB6
:1013A4000319D529D629C7293130FF008312031325
:1013B4004C08E83E84007F08831380000130FF005E
:1013C4007F08CC072A300A168A1128230A128A15A4
:1013D40083120313E2018C290A305106031DF329F9
:1013E400F429522AFD29013083120313BB07031881
:1013F400BC0A0030BC070030861901300A168A1571
:10140400E8270A128A15003A0319092A0A2AF52933
:101414000130831203133C02F43003193B02031816
:10142400142A152A272A01300A168A118B230A1234
:101434008A15FF30FF007F0883120313E107E11FC1
:10144400242A252A8C2AE1018C2901300A168A11C2
:101454008B230A128A158312031361080B3EFF00C3
:101464007F08D1000F305106031D392A3A2A4D2A2C
:101474000C300A168A118B230A128A15B43083128F
:101484000313A3000030A400A501A6010A168A11C3
:101494002B200A128A1583120313BB01BC018C2969
:1014A4000B305106031D572A582A8D2A0030831207
:1014B4000313861901300A168A15E8270A128A15B9
:1014C400003A0319662A672A582A8312031350081C
:1014D40003196D2A6E2A8C291030FF007F08CE076D
:1014E4004E08B600B701B61BB7033708803A803CF4
:1014F400031D7E2A360850020318812A822A852A6F
:1015040083120313CE0101300A168A118B230A12A7
:101514008A158C298C290F305106031D922A932A8F
:10152400B72A003083120313861901300A168A156C
:10153400E8270A128A15003A0319A12AA22A932A33
:101544003130FF00831203136308E83E84007F08F0
:10155400831380000130FF007F08E3072A300A1656
:101564008A1128230A128A15EA290E305106031D0E
:10157400BC2ABD2A8C290A128A15C82A0130831272
:101584000313BB070318BC0A0030BC0700308619DC
:1015940001300A168A15E8270A128A15003A031937
:1015A400D42AD52AC02A0130831203133C02F43012
:1015B40003193B020318DF2AE02A5B2B5203031DA5
:1015C400E42AE52A042B0130FF007F088316031761
:1015D400DA073A305A06031DF02AF12AF92A303084
:1015E400FF007F08DA000130FF007F08D90736309A
:1015F4005906031DFE2AFF2A282B3030FF007F08DE
:10160400D900282B02305206031D092B0A2B282B44
:101614000130FF007F0883160317DC073A305C06AD
:10162400031D152B162B1E2B3030FF007F08DC000A
:101634000130FF007F08DB0736305B06031D232BD8
:10164400242B282B3030FF007F08DB00033083126B
:1016540003135206031D2F2B302B6F2C0130FF0078
:101664007F0883160317DE073A305E06031D3B2B03
:101674003C2B442B3030FF007F08DE000130FF009C
:101684007F08DD0732305D06031D492B4C2B0A12FF
:101694008A158C2A34305E06031D512B522B492B9C
:1016A4003030FF007F08DD003030FF007F08DE00AF
:1016B4006F2C83160317590883120313B6000430E2
:1016C4000310B60DFF3E031D622B831603175A0841
:1016D400D03E831203133604FF007F08CF004F0867
:1016E400FF007F08F40000300A168A11B2200A12A3
:1016F4008A15831603175B0883120313B60004309C
:101704000310B60DFF3E031D822B831603175C08DE
:10171400D03E831203133604FF007F08CF004F0826
:10172400FF007F08F40001300A168A11B2200A1261
:101734008A15831603175D0883120313B600043059
:101744000310B60DFF3E031DA22B831603175E087C
:10175400D03E831203133604FF007F08CF004F08E6
:10176400FF007F08F40002300A168A11B2200A1220
:101774008A1501300A168A118B230A128A15F6017A
:1017840000300A168A1113200A128A1554300A16D8
:101794008A1128230A128A1549300A168A11282325
:1017A4000A128A154D300A168A1128230A128A153C
:1017B40045300A168A1128230A128A1520300A167F
:1017C4008A1128230A128A1549300A168A112823F5
:1017D4000A128A1553300A168A1128230A128A1506
:1017E40020300A168A1128230A128A1553300A1641
:1017F4008A1128230A128A1545300A168A112823C9
:101804000A128A1554300A168A1128230A128A15D4
:10181400F60101300A168A1113200A128A15533070
:101824000A168A1128230A128A1555300A168A11B3
:1018340028230A128A1543300A168A1128230A1209
:101844008A1543300A168A1128230A128A1545304C
:101854000A168A1128230A128A1553300A168A1185
:1018640028230A128A1553300A168A1128230A12C9
:101874008A1546300A168A1128230A128A15553009
:101884000A168A1128230A128A154C300A168A115C
:1018940028230A128A1559300A168A1128230A1293
:1018A4008A15153083120313B8004B30B700BD30CE
:1018B400B600B60B5B2CB70B5B2CB80B5B2C622C05
:1018C40001300A168A118B230A128A158312031314
:1018D40010100A30FF007F08D10000308312031378
:1018E400061A01300A168A15E8270A128A15003AE0
:1018F400031D7F2C0A128A1555280A128A11A82F53
:1019040083120313CC010330FF007F08BA00BB012C
:10191400BC01BD01BE01D001CE01CD010A168A155C
:101924004D270A128A150A168A15BF270A128A1524
:101934000A168A1519270A128A150A168A15F22612
:101944000A128A150A168A1194200A128A150A168E
:101954008A15F8260A128A150A168A155B270A12AE
:101964008A153C30831203138F00B0308E00901020
:10197400101690161010831603130C1483120313FD
:101984000C100B178B17F401A0300A168A11A8212A
:101994000A128A15AA3A0319D02CD12C1C2D053011
:1019A400FF007F08F400831603132008FF007F085C
:1019B400F500A0300A168A1176200A128A1506301C
:1019C400FF007F08F400831603132108FF007F083B
:1019D400F500A0300A168A1176200A128A150730FB
:1019E400FF007F08F400831603132208FF007F081A
:1019F400F500A0300A168A1176200A128A150830DA
:101A0400FF007F08F400831603132308FF007F08F8
:101A1400F500A0300A168A1176200A128A15F401FC
:101A2400AA30FF007F08F500A0300A168A1176203C
:101A34000A128A1502300A168A11EE200A128A1531
:101A4400FF007F0883120313CF00BF30FF007F081D
:101A5400CF054F08FF007F08F40002300A168A11F0
:101A6400B2200A128A150230FF007F08F400A03069
:101A74000A168A11A8210A128A15AA3A0319432DB3
:101A8400442D5B2DF401F40AF501A0300A168A11E5
:101A940076200A128A150230FF007F08F400AA306B
:101AA400FF007F08F500A0300A168A1176200A127A
:101AB4008A15F401F40AA0300A168A11A8210A1220
:101AC4008A15FF007F0883120313D00000308312AD
:101AD4000313061801300A168A15E8270A128A1514
:101AE400003A031D762D772D3C2E0030831203130C
:101AF400061801300A168A15E8270A128A15003AD0
:101B04000319852D862D772D0830FF007F08831259
:101B14000313D3000A168A15AC270A128A15730810
:101B240083120313C4007408C500C601C701003042
:101B3400AB000030AA000330A900FF30A80047081A
:101B4400A3004608A2004508A1004408A0000030F4
:101B5400A7000030A6000030A5006330A4000A16D8
:101B64008A11DE210A128A15831203132308AF0097
:101B74002208AE002108AD002008AC000A168A1124
:101B8400EE230A128A15831203132B08CB002A08AA
:101B9400CA002908C9002808C8003F30FF007F0890
:101BA400A40048080A168A11BF240A128A15D930DB
:101BB4000A168A11DA260A128A1520308400D930CE
:101BC40083120313B6000408B7000E30B8003608B9
:101BD400840083170008B900B60A37088400831309
:101BE40039088000B70AB80BE92D5308FF007F08B5
:101BF400AE003F30FF007F08AF005008FF007F08B1
:101C0400B0000A168A112B250A128A151030FF001B
:101C14007F0883120313D0071030F3000030F40060
:101C24005008B600B7013608F5003708F6000A1662
:101C34008A1156240A128A157408803AFF008030EB
:101C44007F02031D272E0B307302031C2A2E2B2E1A
:101C54002E2E83120313D001F401F40A831203130A
:101C64005008FF007F08F500A0300A168A1176207C
:101C74000A128A15003083120313861801300A16DB
:101C84008A15E8270A128A15003A031D4A2E4B2E9C
:101C94001A2F003083120313861801300A168A158E
:101CA400E8270A128A15003A0319592E5A2E4B2E88
:101CB4000130FF007F0883120313D3070730530258
:101CC400031C652E662E6A2E0230FF007F08D300A7
:101CD4000A168A15AC270A128A157308831203138D
:101CE400C4007408C500C601C7010030AB00003051
:101CF400AA000330A900FF30A8004708A300460843
:101D0400A2004508A1004408A0000030A70000304C
:101D1400A6000030A5006330A4000A168A11DE2153
:101D24000A128A15831203132308AF002208AE0097
:101D34002108AD002008AC000A168A11EE230A120D
:101D44008A15831203132B08CB002A08CA0029081A
:101D5400C9002808C8003F30FF007F08A4004808D5
:101D64000A168A11BF240A128A15D9300A168A1152
:101D7400DA260A128A1520308400D930831203131C
:101D8400B6000408B7000E30B80036088400831784
:101D94000008B900B60A37088400831339088000A4
:101DA400B70AB80BC72E5308FF007F08AE003F30B8
:101DB400FF007F08AF005008FF007F08B0000A163C
:101DC4008A112B250A128A151030FF007F0883120E
:101DD4000313D0071030F3000030F4005008B600AD
:101DE400B7013608F5003708F6000A168A1156249A
:101DF4000A128A157408803AFF0080307F02031D9E
:101E0400052F0B307302031C082F092F0C2F83128C
:101E14000313D001F401F40A831203135008FF00E2
:101E24007F08F500A0300A168A1176200A128A1556
:101E3400003083120313061901300A168A15E827A5
:101E44000A128A15003A031D282F292FF52F003076
:101E540083120313061901300A168A15E8270A1299
:101E64008A15003A0319372F382F292F013083128E
:101E74000313D3025308031D402F412F452F07306E
:101E8400FF007F08D3000A168A15AC270A128A15A8
:101E9400730883120313C4007408C500C601C70184
:101EA4000030AB000030AA000330A900FF30A800C6
:101EB4004708A3004608A2004508A1004408A00062
:101EC4000030A7000030A6000030A5006330A40055
:101ED4000A168A11DE210A128A15831203132308B3
:101EE400AF002208AE002108AD002008AC000A169D
:101EF4008A11EE230A128A15831203132B08CB00CE
:101F04002A08CA002908C9002808C8003F30FF0071
:101F14007F08A40048080A168A11BF240A128A15E9
:101F2400D9300A168A11DA260A128A15203084005A
:101F3400D93083120313B6000408B7000E30B8007A
:101F44003608840083170008B900B60A37088400ED
:101F5400831339088000B70AB80BA22F5308FF0077
:101F64007F08AE003F30FF007F08AF005008FF003D
:101F74007F08B0000A168A112B250A128A15103020
:101F8400FF007F0883120313D0071030F3000030E2
:101F9400F4005008B600B7013608F5003708F6001B
:101FA4000A168A1156240A128A157408803AFF0008
:101FB40080307F02031DE02F0B307302031CE32FDC
:101FC400E42FE72F83120313D001F401F40A8312E0
:101FD40003135008FF007F08F500A0300A168A1189
:101FE40076200A128A15831203133A08031DFD2F63
:101FF4000A128A157C290A128A1580297E088A0009
:102004007F0882000A168A1100200A168A118000AD
:10201400840A04087D0603190034FF0A0319FE0A22
:102024000428F7007708031D1828192822287608A1
:10203400770780380A168A118B230A168A112A28F0
:102044007608403E80380A168A118B230A168A11B4
:102054000800831203132608FF007F08F6002508F2
:102064000A168A1113200A168A11831203132308ED
:10207400F6002408F7000A168A1148210A168A1164
:102084000800F701F7017708203EFF007F08F400FD
:10209400F501A0300A168A1176200A168A11013039
:1020A400FF007F08F707A0307702031C5A285B283B
:1020B400452808000A168A1526270A168A11831647
:1020C400031391150A168A1526270A168A118312F4
:1020D40003131308FF007F08F3000A128A15022075
:1020E4000A168A1173080800F6000A168A15FE26D5
:1020F4000A168A1176080A168A156A270A168A1198
:1021040074080A168A156A270A168A1175080A16A7
:102114008A156A270A168A110A168A1507270A16C3
:102124008A110800831603138801091189100230EB
:102134000A168A118B230A168A1128300A168A1164
:102144008B230A168A110C300A168A118B230A165D
:102154008A1101300A168A118B230A168A11080083
:10216400F5000A168A15FE260A168A11D0300A16B8
:102174008A156A270A168A1175080A168A156A27A3
:102184000A168A1174080A168A156A270A168A1109
:102194000A168A1507270A168A110800F500F6019F
:1021A400E22876087507F4007408840000080A120F
:1021B4008A11F4270A168A110130FF007F08F607F6
:1021C40076087507F4007408840083170008031D5B
:1021D400EC28ED28D3280800F4000A168A15FE26F8
:1021E4000A168A11D0300A168A156A270A168A1125
:1021F40074080A168A156A270A168A110A168A1595
:10220400FE260A168A11D1300A168A156A270A167A
:102214008A110A168A115C200A168A11FF007F08A7
:10222400F5000A168A1507270A168A117508080088
:102234000C1C1D291E293F290130F8070318F90A2F
:102244000030F9070130FF007F08E20713307806F9
:10225400031D30297903031D302931293529013023
:10226400D502F801F9017818382939293A29D4090D
:102274003C308F00B0308E000C107208FF007108E3
:102284008A00700E8300FE0E7E0E09008312031373
:10229400A201642922087607A00077080318013EEA
:1022A400A100200884008317211C831300080A1648
:1022B4008A1128230A168A110130FF007F0883122D
:1022C4000313A20722087607A00077080318013E2B
:1022D400A100200884008317211C83130008031D18
:1022E400742975294C29080083120313A101A10143
:1022F4002108053EFF007F08F400A0300A168A1169
:10230400A8210A168A11FF007F0883120313A00074
:102314002108E83E8400831300082006031D932946
:1023240094299E290130FF007F08A107043021026F
:10233400031C9D299E297A2904302102031CA32908
:10234400A429A6290030A72901300800F5000A169F
:102354008A15FE260A168A117508FE39FF007F08C1
:10236400F60076080A168A156A270A168A1174086E
:102374000A168A156A270A168A110A168A15FE266B
:102384000A168A1175080138FF007F08F6007608DE
:102394000A168A156A270A168A110A168A115C20F7
:1023A4000A168A11FF007F08F6000A168A15072705
:1023B4000A168A11760808000030F7000030F6008B
:1023C4000030F5000030F40083120313201CEB29C5
:1023D400EC29032A2408F407250803110318013EF5
:1023E4000319F529F507260803110318013E0319FB
:1023F400FC29F607270803110318013E0319032AD1
:10240400F7070130F3000310A40DA50DA60DA70DC9
:10241400F30B052A01300310A30CA20CA10CA00C91
:10242400FF3E031D0D2A2308220421042004031D5A
:102434001C2A1D2AE6297708A3007608A20075083D
:10244400A1007408A0000800303430343034303433
:10245400003457346134693474342E342E342E34B9
:1024640020343134353420344D3469346E340034FE
:1024740045344E3454344534523420345034413489
:102484005334533457344F34523444340034533473
:102494007534633463346534733473346634753437
:1024A4006C346C34793400344334683461346E34BD
:1024B40067346534643400344C346F3467347334B3
:1024C4000034543469346D34653400344E346F341C
:1024D400003453345034003483120313A101F61F23
:1024E400742A752A7C2AF509F609F50A0319F60AED
:1024F400A101A10AF41F7F2A802A852AF309F4097D
:10250400F30A0319F40A7308740403198A2A8B2A38
:10251400BA2AA001A00A992A01300310F30DF40D80
:10252400FF3E031D8F2A0130FF007F08A007F41F20
:102534009C2A9D2A8E2A74087602031DA32A7308F6
:102544007502031CA62AA72AAD2A7308F50274088B
:10255400031CF603F60201300310F40CF30CFF3EE7
:10256400031DAE2A0130A002031DB92ABA2A9D2AEE
:1025740021080319BE2ABF2AC42AF509F609F50A57
:102584000319F60A7608F4007508F30008005634B7
:1025940069346534773420344C346F346734003410
:1025A400003400340034003443346C346534613412
:1025B400723420344C346F346734003400340034C3
:1025C400003444346F3477346E346C346F34613493
:1025D400643420344C346F346734003453346534F9
:1025E40074342034543469346D3465340034003424
:1025F4000034003400344334683461346E34673456
:102604006534203470347734643400340034003456
:102614002034003400344F344E34003447343134E1
:1026240000344734323400344734333400344734CC
:102634003434003447345234003447344E34003494
:10264400433420340034003400340034F500831261
:10265400031309150330F4009730F300F30B302B08
:10266400F40B302B352B8312031389140330F4003D
:102674009730F300F30B3C2BF40B3C2B412B7508E8
:10268400F0398312031388000330F4009730F30009
:10269400F30B4A2BF40B4A2B4F2B83120313891091
:1026A4000330F4009730F300F30B562BF40B562B46
:1026B4005B2B8312031389140330F4009730F30067
:1026C400F30B622BF40B622B672B7508F3000330BA
:1026D4000310F30DFF3E031D6A2B0310730DF03935
:1026E4008312031388000330F4009730F300F30BD4
:1026F400792BF40B792B7E2B83120313891003306F
:10270400F4009730F300F30B852BF40B852B8A2B05
:102714000800F5008312031309110330F400973005
:10272400F300F30B932BF40B932B982B83120313CB
:1027340089140330F4009730F300F30B9F2BF40B50
:102744009F2BA42B7508F0398312031388000330E0
:10275400F4009730F300F30BAD2BF40BAD2BB22B3D
:102764008312031389100330F4009730F300F30B42
:10277400B92BF40BB92BBE2B83120313891403302A
:10278400F4009730F300F30BC52BF40BC52BCA2BC5
:102794007508F30003300310F30DFF3E031DCD2B2A
:1027A4000310730DF0398312031388000330F4000F
:1027B4009730F300F30BDC2BF40BDC2BE12B8312AF
:1027C400031389100330F4009730F300F30BE82B64
:1027D400F40BE82BED2B0800003083120313B40034
:1027E4000030B3000030B2000030B1002B082A04DE
:1027F400290428040319FF2B002C4D2CB501B50A1C
:10280400102C0130B0000310A80DA90DAA0DAB0DBA
:10281400B00B052C0130FF007F08B507AB1F132C4C
:10282400142C032C0130B0000310B10DB20DB30D04
:10283400B40DB00B162C2B082F02031D2B2C2A08C9
:102844002E02031D2B2C29082D02031D2B2C2808D6
:102854002C02031C2E2C2F2C3E2C2808AC022908F9
:10286400031C290FAD022A08031C2A0FAE022B08F1
:10287400031C2B0FAF02311401300310AB0CAA0C54
:10288400A90CA80CFF3E031D3F2C0130B502031D0B
:102894004C2C4D2C142C3408AB003308AA003208FD
:1028A400A9003108A800080083120313A101F41F32
:1028B4005C2C5D2C642CF309F409F30A0319F40A63
:1028C400A101A10AF61F672C682C712CF509F609E1
:1028D400F50A0319F60A0130FF007F08A106A201D8
:1028E400A301730874040319782C792CB02CA0016B
:1028F400A00A872C01300310F30DF40DFF3E031DD5
:102904007D2C0130FF007F08A007F41F8A2C8B2C3C
:102914007C2C01300310A20DA30DFF3E031D8C2C53
:1029240074087602031D982C73087502031C9B2CF3
:102934009C2CA32C7308F5027408031CF603F602FE
:10294400221401300310F40CF30CFF3E031DA42CDD
:102954000130A002031DAF2CB02C8B2C21080319CD
:10296400B42CB52CBA2CA209A309A20A0319A30AF0
:102974002308F4002208F3000800F7000A30F300EB
:102984000030F4007708F500F601F51BF6030A168B
:102994008A1156240A168A1173087404031DD32C51
:1029A400D42CF62C3030FF00831203132408840047
:1029B4007F08831380000A30F3000030F4007708A6
:1029C400F500F601F51BF6030A168A116E220A16A3
:1029D4008A117308303EFF0083120313240A840013
:1029E4007F0883138000262D0A30F3000030F400A2
:1029F4007708F500F601F51BF6030A168A1156242A
:102A04000A168A117308303EFF0083120313240848
:102A140084007F08831380000A30F3000030F40040
:102A24007708F500F601F51BF6030A168A116E22E3
:102A34000A168A117308303EFF0083120313240A16
:102A440084007F08831380002408023E84008001F0
:102A54000800831203133008273EFF007F08F400A8
:102A64002F08840083130008FF007F08F500A030BE
:102A74000A168A1176200A168A1183120313300863
:102A8400283EFF007F08F4002F0A84008313000807
:102A9400FF007F08F500A0300A168A1176200A1676
:102AA4008A11831203133008263EFF007F08F400C6
:102AB4002E08FF007F08F500A0300A168A11762040
:102AC4000A168A11831203133008243EFF007F087C
:102AD400F4002008FF007F08F500A0300A168A11D0
:102AE40076200A168A11831203133008253EFF004C
:102AF4007F08F4002108FF007F08F500A0300A16C3
:102B04008A1176200A168A11831203133008223E92
:102B1400FF007F08F4002208FF007F08F500A030C2
:102B24000A168A1176200A168A11831203133008B2
:102B3400233EFF007F08F4002308FF007F08F50010
:102B4400A0300A168A1176200A168A1183120313FA
:102B54003008203EFF007F08F4002408FF007F08AF
:102B6400F500A0300A168A1176200A168A118312FB
:102B740003133008213EFF007F08F4002508FF00FE
:102B84007F08F500A0300A168A1176200A168A11E9
:102B940008000E305106031DD02DD32D0A128A11C0
:102BA400A82FE12D0230FF007F08D200D02D033082
:102BB400FF007F08D200D02DD201D20AD02D5208B6
:102BC400B600B7013708003A0319E92DF42D360889
:102BD400013A0319D42D033A0319D92D013A0319E3
:102BE400DE2DF42DD02D10100C300A168A118B23F3
:102BF4000A168A11DD3083120313A3000030A400E7
:102C0400A5010230FF007F08A6000A168A112B20B6
:102C14000A168A115F3083120313A3000030A40044
:102C2400A5010B30FF007F08A6000A168A112B208D
:102C34000A168A11E53083120313A3000030A4009E
:102C4400A5010E30FF007F08A6000A168A112B206A
:102C54000A168A118312031353080A128A11D527FC
:102C64000A168A110A168A15AC270A168A117308DD
:102C740083120313C4007408C500C601C7010030E1
:102C8400AB000030AA000330A900FF30A8004708B9
:102C9400A3004608A2004508A1004408A000003093
:102CA400A7000030A6000030A5006330A4000A1677
:102CB4008A11DE210A168A11831203132308AF0036
:102CC4002208AE002108AD002008AC000A168A11C3
:102CD400EE230A168A11831203132B08CB002A0849
:102CE400CA002908C9002808C8003F30FF007F082F
:102CF400A40048080A168A11BF240A168A113F3014
:102D040083120313A3000030A400A501A50A0E300A
:102D1400FF007F08A6000A168A112B200A168A11C2
:102D2400D9300A168A11DA260A168A11831603176D
:102D34005A08FF007F0883120313DD00831603176C
:102D44005908FF007F0883120313DC00831603175E
:102D54005C08FF007F0883120313DA00831603174D
:102D64005B08FF007F0883120313D900831603173F
:102D74005E08FF007F0883120313D700831603172E
:102D84005D08FF007F0883120313D6005630A300AA
:102D94000030A400A501A50A0230FF007F08A600A8
:102DA4000A168A112B200A168A110A128A11122F66
:102DB40083120313A00000300A168A11EE200A16AB
:102DC4008A11FF007F0883120313A10001300A1641
:102DD4008A11EE200A168A11FF007F08831203135A
:102DE400A20002300A168A11EE200A168A11FF0088
:102DF4007F0883120313A300A31E012F022F092FA0
:102E04002008063E840083178001800A0E2F2008C4
:102E1400063E8400831780011F30FF007F08A3054E
:102E240003300A168A11EE200A168A11FF007F0861
:102E340083120313A50025080A168A1540270A16CB
:102E44008A11FF00831203132008073E84007F08C1
:102E54008317800004300A168A11EE200A168A119C
:102E6400FF007F0883120313A60005300A168A1197
:102E7400EE200A168A11FF007F0883120313A700AD
:102E840006300A168A11EE200A168A11FF007F08FE
:102E940083120313A80021080A168A1510270A169C
:102EA4008A11FF0083120313200A84007F0883170A
:102EB400800021080A168A157A270A168A11FF004B
:102EC40083120313200884007F08831780002208DC
:102ED4000A168A1510270A168A11FF008312031393
:102EE4002008033E84007F088317800022080A1606
:102EF4008A157A270A168A11FF0083120313200801
:102F0400023E84007F088317800023080A168A156E
:102F140010270A168A11FF00831203132008053EA6
:102F240084007F088317800023080A168A157A27ED
:102F34000A168A11FF00831203132008043E84003A
:102F44007F088317800026080A168A1510270A1698
:102F54008A11FF00831203132008093E84007F08AE
:102F64008317800026080A168A157A270A168A11FA
:102F7400FF00831203132008083E84007F08831790
:102F8400800027080A168A1510270A168A11FF00DE
:102F94008312031320080B3E84007F0883178000EC
:102FA40027080A168A157A270A168A11FF0083123F
:102FB400031320080A3E84007F0883178000280832
:102FC4000A168A1510270A168A11FF0083120313A2
:102FD40020080D3E84007F088317800028080A1605
:102FE4008A157A270A168A11FF0083120313200810
:0C2FF4000C3E84007F088317800008005A
:103DE4000A168A1533270A168A1508000A168A1530
:103DF40033270A168A1508000A168A1526270A1672
:103E04008A1583160313111408000A168A15262727
:103E14000A168A158316031311150800F300730894
:103E24000F39303EFF007F08F400740808000A16BA
:103E34008A15BF270A168A158316031306148614D7
:103E440006158615061608008316031314192B2F5E
:103E54002C2F262F11081F39031D312F322F262F07
:103E6400080028308312031394008316031391016E
:103E7400940113309300871507160800F6000330E9
:103E8400FF007F08F30076080A168A15D3270A165E
:103E94008A15903E08004130831203139F008E3030
:103EA400831603139F001330F300F30B572F5A2F7D
:103EB400080083160313181533309900181283125F
:103EC4000313981783160313071787179816080008
:103ED400F3000A168A1526270A168A157308831210
:103EE400031393000A168A1526270A168A15080052
:103EF400F4007408F30004300310F30CFF3E031DB8
:103F04007E2F7308303EFF007F08F5007508080017
:103F140008340134013401340F34683468343A34D9
:103F24006D346D343A3473347334003445340034AE
:103F3400F7000330FF007F08F30077080A168A159C
:103F4400D3270A168A15513E0A168A11D0200A165A
:103F54008A150800831203131F151E08F600831622
:103F640003131E08F50083121F19B92FBA2FB52F9A
:103F74007608F4007508F30008001F308316031355
:103F84008500FF308600FF308700FE308800073050
:103F94008900831203138501860187018801890141
:103FA4000800F500F401751CD82FD92FDD2F7308F4
:103FB400FF007F08F4070310F30D0310F50C7508D8
:103FC400031DE52FE62FD52F74080800F5007508AA
:103FD400031DED2FEE2FFE2F1A30F400F830F300FE
:103FE400F30BF22FF40BF22F00007508031DFB2FC7
:0C3FF400FC2FFE2F0030FF2F01300800D2
:02400E00713F00
:00000001FF
