:020000040000FA
:060000000A128A11DD2F37
:1006CE0083160313061486140615081088100811D5
:1006DE008811080020342034203420342034203473
:1006EE00203420342034203420342034203420345C
:1006FE00203420340034F8007708FF007F08F30020
:10070E0076080A128A11A7230A128A1178080A1289
:10071E008A11BF230A128A1108007E088A007F08F8
:10072E0082000A128A1194230A128A118000840A06
:10073E0004087D0603190034FF0A0319FE0A982BDC
:10074E00F4007408031DAC2BAD2BB62B7308740785
:10075E0080380A128A11B9240A128A11BE2B730824
:10076E00403E80380A128A11B9240A128A110800F2
:10077E00F400F501D12B75087407F300730884009B
:10078E0000080A128A114A240A128A110130FF0047
:10079E007F08F50775087407F30073088400831348
:1007AE000008031DDB2BDC2BC22B08008316031362
:1007BE0088018910091102300A128A11B9240A120D
:1007CE008A1128300A128A11B9240A128A110C30A1
:1007DE000A128A11B9240A128A1101300A128A11D8
:1007EE00B9240A128A11080050308400A030F90092
:1007FE000408FA001130FB00790884008313000806
:10080E00FC00F90A7A0884007C088000FA0AFB0BC7
:10081E00032CF601F60AF70150300A128A118223D0
:10082E000A128A110800033420344D3465347334AF
:10083E00733461346734653420344D34613472342A
:10084E00713475346534653445346E3474346534BE
:10085E00723420344E346534773420344E3475344B
:10086E006D34623465347234303430343034303474
:10087E003034303430343034303400346D347334FA
:10088E0067343A340034F20083120313091503302F
:10089E00F1009730F000F00B522CF10B522C572C2C
:1008AE008312031389140330F1009730F000F00B1C
:1008BE005E2CF10B5E2C632C0F30FF007F08831231
:1008CE00031388057208F039FF007F08880403308F
:1008DE00F1009730F000F00B722CF10B722C772C8C
:1008EE008312031389100330F1009730F000F00BE0
:1008FE007E2CF10B7E2C832C831203138914033070
:10090E00F1009730F000F00B8A2CF10B8A2C8F2C13
:10091E000F30FF007F088312031388057208F00062
:10092E0003300310F00DFF3E031D982C0310700DC5
:10093E00F039FF007F0888040330F1009730F00093
:10094E00F00BA72CF10BA72CAC2C831203138910E0
:10095E000330F1009730F000F00BB32CF10BB32CF9
:10096E00B82C0800F2008312031309110330F100B2
:10097E009730F000F00BC12CF10BC12CC62C83125A
:10098E00031389140330F1009730F000F00BCD2CD7
:10099E00F10BCD2CD22C0F30FF007F0883120313E6
:1009AE0088057208F039FF007F0888040330F100D3
:1009BE009730F000F00BE12CF10BE12CE62C8312BA
:1009CE00031389100330F1009730F000F00BED2C7B
:1009DE00F10BED2CF22C8312031389140330F1006A
:1009EE009730F000F00BF92CF10BF92CFE2C0F3098
:1009FE00FF007F088312031388057208F00003308E
:100A0E000310F00DFF3E031D072D0310700DF0397E
:100A1E00FF007F0888040330F1009730F000F00BE0
:100A2E00162DF10B162D1B2D831203138910033077
:100A3E00F1009730F000F00B222DF10B222D272D17
:100A4E000800831203130810881408158815061859
:100A5E00312D322D402D0818352D362D402D0618EE
:100A6E00392D3A2D3E2D081C3D2D3E2D362D313083
:100A7E003D2E8618432D442D522D0818472D482DF6
:100A8E00522D86184B2D4C2D502D081C4F2D502DB0
:100A9E00482D32303D2E0619552D562D642D081831
:100AAE00592D5A2D642D06195D2D5E2D622D081CB3
:100ABE00612D622D5A2D33303D2E1A30F100F83053
:100ACE00F000F00B682DF10B682D0000831203135C
:100ADE0008148810081588150618762D772D852D83
:100AEE0088187A2D7B2D852D06187E2D7F2D832D32
:100AFE00881C822D832D7B2D2A303D2E8618882D25
:100B0E00892D972D88188C2D8D2D972D8618902D2B
:100B1E00912D952D881C942D952D8D2D30303D2E9B
:100B2E0006199A2D9B2DA92D88189E2D9F2DA92D26
:100B3E000619A22DA32DA72D881CA62DA72D9F2DFE
:100B4E0023303D2E1A30F100F830F000F00BAD2DB1
:100B5E00F10BAD2D00008312031308148814081135
:100B6E0088150618BB2DBC2DCA2D0819BF2DC02DFA
:100B7E00CA2D0618C32DC42DC82D081DC72DC82D6E
:100B8E00C02D37303D2E8618CD2DCE2DDC2D0819DB
:100B9E00D12DD22DDC2D8618D52DD62DDA2D081D72
:100BAE00D92DDA2DD22D38303D2E0619DF2DE02D20
:100BBE00EE2D0819E32DE42DEE2D8618E72DE82DE8
:100BCE00EC2D081DEB2DEC2DE42D39303D2E1A3079
:100BDE00F100F830F000F00BF22DF10BF22D0000C9
:100BEE008312031308148814081588110618002E92
:100BFE00012E0F2E8819042E052E0F2E0618082EE4
:100C0E00092E0D2E881D0C2E0D2E052E34303D2E48
:100C1E008618122E132E212E8819162E172E212EDF
:100C2E0086181A2E1B2E1F2E881D1E2E1F2E172EB7
:100C3E0035303D2E0619242E252E332E8819282EBA
:100C4E00292E332E06192C2E2D2E312E881D302EA8
:100C5E00312E292E36303D2E1A30F100F830F000AC
:100C6E00F00B372EF10B372E0000003008000A1261
:100C7E008A11DD230A128A110A128A1167230A12B7
:100C8E008A1183120313E501E4010A128A11282541
:100C9E000A128A11FF007F0883120313E3001E2F2E
:100CAE0002302006031D5C2E5D2E5E2EE6016808C6
:100CBE00031D622E632E3A2F0130FF006708413E5E
:100CCE0084007F08831380076708413E84003A3012
:100CDE000002031C732E742E3A2F3030FF0067086B
:100CEE00413E84007F0880003A2F02302006031D0B
:100CFE00812E822E842EE601E60A6808031D882EB8
:100D0E00892E3A2F6708413E8400013083138002FA
:100D1E006708413E8400303000020318972E982E4B
:100D2E003A2F3930FF006708413E84007F0880006B
:100D3E003A2F6808031DA42EA52E3A2FFF30FF0070
:100D4E007F08E707E71FAC2EAD2E3A2FE7013A2FAB
:100D5E006808031DB32EB42E3A2F0130FF007F0812
:100D6E00E7070130FF007F08E4076708803A763E08
:100D7E00031CC22EC32E3A2F0930FF007F08E70056
:100D8E003A2F01300A128A11B9240A128A11F60179
:100D9E00F70121300A128A1182230A128A11831254
:100DAE000313E701E501E801E80A0230FF007F08BE
:100DBE00A0003A2F0330FF007F08A0003A2F200832
:100DCE00E100E2016208003A0319EE2E3A2F6108A3
:100DDE00023A0319E12E013A0319C82E3A2F0130B7
:100DEE000A128A11B9240A128A11F601F70131305A
:100DFE000A128A1182230A128A11F601F60AF701E3
:100E0E004B300A128A1182230A128A113030FF00E7
:100E1E00831203136408423E84007F08831380000C
:100E2E00E4010330FF007F08A000E8013A2F6308B9
:100E3E00E100E2016208003A0319262F3A2F6108F9
:100E4E00313A0319572E033A03197C2E013A03192E
:100E5E00A02E073A0319AF2E013A0319E62E033AD4
:100E6E000319F62E3A2F6808031D3E2F3F2F8B2FA6
:100E7E006908031D432F442F592FF601F701313016
:100E8E000A128A1182230A128A11F601F60AF70152
:100E9E004B300A128A1182230A128A11831203130B
:100EAE00E901E90A0C300A128A11B9240A128A11D0
:100EBE00831203136708043EFF007F08F30001301E
:100ECE000A128A11A7230A128A11831203136708C2
:100EDE00413E8400831300080A128A114A240A1222
:100EEE008A11831203136708043EFF007F08F30084
:100EFE0001300A128A11A7230A128A110F300A1220
:100F0E008A11B9240A128A110230831203132006A1
:100F1E00031D922F932F4C2E0C300A128A11B924D6
:100F2E000A128A11831203136408423E840083134B
:100F3E0080010A128A11FB230A128A11F601F60A9F
:100F4E00831203136508FF007F08F70041300A1271
:100F5E008A1182230A128A11831203136603031D58
:100F6E00B92FBA2FC72F0130FF007F08E50765089C
:100F7E00803A6F3E031CC42FC52F4C2EE5014C2E1C
:100F8E006608031DCB2FCC2FD92FFF30FF007F0813
:100F9E00E507E51FD32FD42FD92F1030FF007F0880
:100FAE00E5004C2E4C2E0A128A1100288313B13004
:100FBE00FD000330FE007130FF00A03084000A12E5
:100FCE008A1198230A128A115030FD000430FE0057
:100FDE001A30FF00203084000A128A1198230A1258
:100FEE008A11E601E701E801E90183010A128A117B
:020FFE003E2E85
:02400E00713F00
:00000001FF
