:020000040000FA
:060000000A128A110C280F
:10000800FE00030EF0000A08F1000A128A114A29BC
:100018000A128A110F2883134530FD000130FE00B3
:100028002530FF00203084000A128A118C210A1220
:100038008A11C501C601C701C801C901F701F80144
:10004800F901FA01FB0183010A128A112B28831690
:100058000313880185018312031305118511051205
:100068008512200888003C308F00B0308E00901038
:100078001016901206141014831603130C1483120E
:1000880003130C100B178B1745034604031D4D284B
:100098004E2854280430FF007F08F707C501C60121
:1000A8007708CA00CB012C300A128A116F210A1274
:1000B8008A11831203134B087302031D65284A082B
:1000C80072020318682869286C28F701C501C6015F
:1000D80077082C3E840083130008D03EFF007F0879
:1000E800F8000B307802031C7A287B287F280A3016
:1000F800FF007F08F80077082D3E84000008D03EF6
:10010800FF007F08F9000B307902031C8C288D282A
:1001180091280A30FF007F08F90077082E3E8400F6
:100128000008D03EFF007F08FA000B307A02031C5B
:100138009E289F28A3280A30FF007F08FA00770826
:100148002F3E84000008D03EFF007F08FB000B30E4
:100158007B02031CB028B1280C290A30FF007F0855
:10016800FB000C2905118511051285168030FF004A
:100178007F0888057B08203E84000008FF007F0870
:1001880088040230FF007F08AB004828051185115C
:10019800051685128030FF007F0888057A08203E02
:1001A80084000008FF007F0888040330FF007F08F0
:1001B800AB00482805118515051285128030FF000F
:1001C8007F0888057908203E84000008FF007F0822
:1001D80088044903031DF128F228F5288030880691
:1001E800C9010430FF007F08AB00482805158511B8
:1001F800051285128030FF007F0888057808203EA8
:1002080084000008FF007F088804AB01AB0A482877
:100218002B08CA00CB014B08003A031914294828B7
:100228004A08013A0319B628033A0319CA28013AB9
:100238000319DE28073A0319FA2848280A128A11EE
:100248000C283F3406345B344F3466346D347D34C7
:1002580007347F346F34003401343134323433346A
:10026800343435343634373438343934303431343E
:1002780032343434383431343634003400340034D1
:100288000034003400340034003400348312031383
:100298000C1C4F29502968290130C7070318C80AC0
:1002A8000030C8070A3047064804031D5C295D2949
:1002B80063290130C5000030C600C701C8013C30C1
:1002C8008F00B0308E000C1071088A00700E830009
:1002D800FE0E7E0E0900F5007508FF007F08F60087
:1002E80079290130FF007F08F60776088400831318
:1002F8000008031D80298129752975087602F200F6
:10030800F301F21BF30308007E088A007F088200CD
:100318000A128A1188210A128A118000840A0408A4
:0E0328007D0603190034FF0A0319FE0A8C2912
:02400E00713F00
:00000001FF
