:020000040000FA
:060000000A128A110C280F
:10000800FE00030EF2000A08F3000A128A11972B69
:100018000A128A110F288313D030FD000330FE0026
:100028006730FF00A03084000A128A1134240A12B3
:100038008A115B30FD000330FE002C30FF002030B9
:1000480084000A128A1134240A128A11DB01DC01A5
:10005800DD01DE01DF01E001E101E201E301E4018C
:10006800F801F90183010A128A1150298312031336
:10007800081088140815881506184328442852289B
:10008800081847284828522806184B284C28502872
:10009800081C4F285028482831304F2986185528E1
:1000A80056286428081859285A28642886185D286C
:1000B8005E286228081C612862285A2832304F2995
:1000C800061967286828762808186B286C28762867
:1000D80006196F2870287428081C732874286C283F
:1000E80033304F293430F500F130F400F40B7A281E
:1000F800F50B7A287F288312031308148810081533
:100108008815061888288928972888188C288D2803
:1001180097280618902891289528881C94289528AF
:100128008D282A304F2986189A289B28A9288818AC
:100138009E289F28A9288618A228A328A728881CB3
:10014800A628A7289F2830304F290619AC28AD28A3
:10015800BB288818B028B128BB280619B428B528A8
:10016800B928881CB828B928B12823304F29343039
:10017800F500F130F400F40BBF28F50BBF28C428B4
:100188008312031308148814081188150618CD283B
:10019800CE28DC280819D128D228DC280618D5282A
:1001A800D628DA28081DD928DA28D22837304F2946
:1001B8008618DF28E028EE280819E328E428EE2826
:1001C8008618E728E828EC28081DEB28EC28E428FE
:1001D80038304F290619F128F22800290819F5287E
:1001E800F62800298618F928FA28FE28081DFD286F
:1001F800FE28F62839304F293430F500F130F40064
:10020800F40B0429F50B0429092983120313081494
:100218008814081588110618122913292129881904
:1002280016291729212906181A291B291F29881D6B
:100238001E291F29172934304F29861824292529D2
:100248003329881928292929332986182C292D2961
:100258003129881D30293129292935304F29061996
:1002680036293729452988193A293B294529061964
:100278003E293F294329881D422943293B293630F5
:100288004F293430F500F130F400F40B4929F50B0F
:1002980049294E29003008008316031386130A12D1
:1002A8008A11E2230A128A110A128A1156240A12A2
:1002B8008A110A128A1143240A128A11831203131B
:1002C800E701E801E80A4B300A128A111A240A12D7
:1002D8008A1183120313ED01ED0A0A128A113A20DA
:1002E8000A128A11FF007F0883120313EC00B82951
:1002F8006408033EFF007F08F70001300A128A11E4
:1003080000240A128A112A300A128A11BD220A12FE
:100318008A113130FF008312031364085B3E8400A6
:100328007F08831380000130FF007F08E407C82995
:100338006408033EFF007F08F70001300A128A11A3
:1003480000240A128A112A300A128A11BD220A12BE
:100358008A113230FF008312031364085B3E840065
:100368007F088313800097296C08EA00EB016B086B
:10037800003A0319C029C8296A08313A03197C29A7
:10038800033A03199C29C82908306402031CCD29A3
:10039800CE29052AEE01FF296E08203E840083132A
:1003A8000008EA006E085B3E840000086A0603192C
:1003B800DE29DF29F429FF30FF007F08A907033071
:1003C800AA02E401E701E70AE8012B300A128A11C0
:1003D8001A240A128A1183120313ED01ED0A052A61
:1003E80007306E06031DF929FA29FB29ED010130B2
:1003F800FF007F08EE0708306E02031C042A052A56
:10040800D0296D08031D092A0A2A282A10108613E4
:1004180001300A128A114E220A128A11831203131A
:10042800E701E8013B300A128A111A240A128A11DC
:1004380083120313E701E70AE801C0300A128A11A0
:100448001A240A128A11272A2908031D2C2A2D2A60
:1004580071291010861701300A128A114E220A12C9
:100468008A1183120313E701E801B0300A128A11D6
:100478001A240A128A1183120313E701E70AE80112
:10048800A0300A128A111A240A128A114A2A0A1258
:100498008A110C28F6008312031309110330F500A2
:1004A8009730F400F40B562AF50B562A5B2A831270
:1004B800031389140330F5009730F400F40B622A13
:1004C800F50B622A672A0F30FF007F088312031397
:1004D80088057608F039FF007F0888040330F500A6
:1004E8009730F400F40B762AF50B762A7B2A8312D0
:1004F800031389100330F5009730F400F40B822AB7
:10050800F50B822A872A8312031389140330F50016
:100518009730F400F40B8E2AF50B8E2A932A0F30AD
:10052800FF007F088312031388057608F400033060
:100538000310F40DFF3E031D9C2A0310740DF039BF
:10054800FF007F0888040330F5009730F400F40BAF
:10055800AB2AF50BAB2AB02A831203138910033098
:10056800F5009730F400F40BB72AF50BB72ABC2A2C
:100578000800F6008312031309150330F5009730BD
:10058800F400F40BC52AF50BC52ACA2A83120313F3
:1005980089140330F5009730F400F40BD12AF50BD9
:1005A800D12AD62A0F30FF007F088312031388054B
:1005B8007608F039FF007F0888040330F50097308B
:1005C800F400F40BE52AF50BE52AEA2A8312031353
:1005D80089100330F5009730F400F40BF12AF50B7D
:1005E800F12AF62A8312031389140330F500973091
:1005F800F400F40BFD2AF50BFD2A022B0F30FF0047
:100608007F088312031388057608F400033003106B
:10061800F40DFF3E031D0B2B0310740DF039FF0082
:100628007F0888040330F5009730F400F40B1A2B88
:10063800F50B1A2B1F2B8312031389100330F500B7
:100648009730F400F40B262BF50B262B2B2B0800E8
:100658003134323431343234313432343134323466
:100668000034053414342034203420342034203429
:1006780020342034203420342034203420342034D2
:1006880020342034003420344534783463346534DD
:100698006C346C3465346E347434203420347934DA
:1006A8006F347534003445346E34743465347234C0
:1006B8002034503461347334733477346F34723483
:1006C800643400340034523465347334653474341B
:1006D8002034743468346534203442346F346134DF
:1006E8007234643400346334683461346E3463348F
:1006F8006534733420346534783461347534733434
:1007080074346534643443347234613463346B3420
:1007180065346434203474346834653420344334A4
:100728006F3464346534831203130C1C9C2B9D2B8B
:10073800B92B0130F8070318F90A0030F9072A081D
:10074800F000F10179087106031DAC2B78087006DA
:10075800031DAF2BB02BB42B80308606F801F901AE
:100768003C308F00B0308E000C1073088A00720E77
:100778008300FE0E7E0E090083120313E500E601D6
:10078800D62B66086507F7007708840000080A1268
:100798008A11BD220A128A110130FF007F088312D4
:1007A8000313E60766086507F700770884008313D4
:1007B8000008031DE02BE12BC52B0800831603134B
:1007C80088018910091102300A128A114E220A1270
:1007D8008A1128300A128A114E220A128A110C3004
:1007E8000A128A114E220A128A1101300A128A113B
:1007F8004E220A128A11080083120313E5006508C5
:10080800031D072C082C112C7708650780380A125D
:100818008A114E220A128A11192C7708403E803814
:100828000A128A114E220A128A110800831203132F
:10083800E9006808FF007F08F70067080A128A11B4
:1008480000240A128A118312031369080A128A11F2
:10085800C0230A128A1108007E088A007F088200D5
:100868000A128A1130240A128A118000840A0408A4
:100878007D0603190034FF0A0319FE0A342C3C30A4
:10088800831203138F00B0308E0090101012901254
:100898001014831603130C14831203130C100B1774
:1008A8008B17080083160313061486140615081000
:0808B8008810081188110800E6
:02400E00713F00
:00000001FF
