:020000040000FA
:060000000A128A11EE2F26
:100C5A00F8007708FF007F08F30076080A128A1165
:100C6A0052260A128A1178080A128A116A260A1268
:100C7A008A1108007E088A007F0882000A128A11F7
:100C8A003F260A128A118000840A04087D06031985
:100C9A000034FF0A0319FE0A432EF4007408031DE8
:100CAA00572E582E612E7308740780380A128A113B
:100CBA008B270A128A11692E7308403E80380A125D
:100CCA008A118B270A128A110800F400F5017C2E7A
:100CDA0075087407F3007308840000080A128A1161
:100CEA0028270A128A110130FF007F08F5077508C4
:100CFA007407F3007308840083130008031D862E0B
:100D0A00872E6D2E08008316031388010911891096
:100D1A0002300A128A118B270A128A1128300A1203
:100D2A008A118B270A128A110C300A128A118B2710
:100D3A000A128A1101300A128A118B270A128A11A1
:100D4A00080043346F3475346E3474343A340034E2
:100D5A0000340034003400340034003400340034E9
:100D6A0000343134303420344434693467346934DB
:100D7A007434203443346F3475346E3474346534C7
:100D8A0072343034303430343034303430343034F7
:100D9A0030343034303400340A128A1188260A1268
:100DAA008A11F601F70130300A128A112D260A1229
:100DBA008A11F601F60AF70120300A128A112D2645
:100DCA000A128A1104300A128A118B270A128A110E
:100DDA000130FF007F0883120313C007F901790865
:100DEA00403E84003A3083130002031CFD2EFE2E7F
:100DFA000C2F0130FF007908413E84007F088007EC
:100E0A003030FF007908403E84007F0880000130BE
:100E1A00FF007F08F9070A307902031C152F162FE5
:100E2A00F42E0230FF007F08F6000F30FF007F0823
:100E3A00F70040300A128A112D260A128A11ED2E65
:100E4A000A128A110028F2008312031309150330CB
:100E5A00F1009730F000F00B302FF10B302F352FC7
:100E6A008312031389140330F1009730F000F00B5A
:100E7A003C2FF10B3C2F412F7208F03983120313D8
:100E8A0088000330F1009730F000F00B4A2FF10B85
:100E9A004A2F4F2F8312031389100330F100973022
:100EAA00F000F00B562FF10B562F5B2F8312031312
:100EBA0089140330F1009730F000F00B622FF10B28
:100ECA00622F672F7208F00003300310F00DFF3E07
:100EDA00031D6A2F0310700DF03983120313880063
:100EEA000330F1009730F000F00B792FF10B792FD6
:100EFA007E2F8312031389100330F1009730F0001C
:100F0A00F00B852FF10B852F8A2F0800F200831230
:100F1A00031309110330F1009730F000F00B932FFF
:100F2A00F10B932F982F8312031389140330F100C6
:100F3A009730F000F00B9F2FF10B9F2FA42F720810
:100F4A00F0398312031388000330F1009730F00060
:100F5A00F00BAD2FF10BAD2FB22F831203138910B3
:100F6A000330F1009730F000F00BB92FF10BB92FD5
:100F7A00BE2F8312031389140330F1009730F00057
:100F8A00F00BC52FF10BC52FCA2F7208F0000330E2
:100F9A000310F00DFF3E031DCD2F0310700DF03925
:100FAA008312031388000330F1009730F000F00B2E
:100FBA00DC2FF10BDC2FE12F83120313891003308E
:100FCA00F1009730F000F00BE82FF10BE82FED2F2E
:100FDA00080083134B30FD000630FE00A630FF00E8
:100FEA00203084000A128A1143260A128A118301C8
:060FFA000A128A11D12E3B
:02400E00713F00
:00000001FF
