:020000040000FA
:060000000A128A11E22F32
:10096A0083120313971517158316031307117C3087
:10097A009200831203131214921012150800F80041
:10098A007708FF007F08F30076080A128A11E92423
:10099A000A128A1178080A128A1101250A128A1182
:1009AA0008007E088A007F0882000A128A11D6246B
:1009BA000A128A118000840A04087D060319003489
:1009CA00FF0A0319FE0ADA2CF4007408031DEE2C40
:1009DA00EF2CF82C7308740780380A128A119026B3
:1009EA000A128A11002D7308403E80380A128A11B1
:1009FA0090260A128A110800F400F501132D7508D1
:100A0A007407F3007308840000080A128A11212669
:100A1A000A128A110130FF007F08F507750874076A
:100A2A00F3007308840083130008031D1D2D1E2D77
:100A3A00042D080083160313880189100911023056
:100A4A000A128A1190260A128A1128300A128A1169
:100A5A0090260A128A110C300A128A1190260A125A
:100A6A008A1101300A128A1190260A128A11080084
:100A7A0020342034203420342034203420342034CC
:100A8A0020342034203420342034203420342034BC
:100A9A0000344C34453444342034443469346D349D
:100AAA006D346534723420344C34653476346534AC
:100ABA006C34F401F501701C632D642D6A2D7208E3
:100ACA00F4070318F50A7308F50701300310F20D4D
:100ADA00F30DFF3E031D6B2D01300310F10CF00CDA
:100AEA00FF3E031D722D70087104031D7D2D7E2D9E
:100AFA00602D7508F1007408F00008007708F1000D
:100B0A007608F0000530F2000030F3000A128A116C
:100B1A005E250A128A117108FC007008FB00033076
:100B2A007C02FF3003197B0203189C2D9D2DC72DD3
:100B3A007B080139FF007F08FA007A18A52DA92D34
:100B4A00831203131716AC2D8312031317127B0893
:100B5A000239FF007F08FA007A18B42DB82D8312E3
:100B6A0003139716BB2D8312031397127C08F900FF
:100B7A007B08F8000310F90CF80C0310F90CF80CB8
:100B8A00780895000800F501F31FCC2DCD2DD42D42
:100B9A00F209F309F20A0319F30AF501F50AF11F3A
:100BAA00D72DD82DDD2DF009F109F00A0319F10A24
:100BBA00700871040319E22DE32D122EF401F40AD0
:100BCA00F12D01300310F00DF10DFF3E031DE72D4D
:100BDA000130FF007F08F407F11FF42DF52DE62DF3
:100BEA0071087302031DFB2D70087202031CFE2D8F
:100BFA00FF2D052E7008F2027108031CF303F3029D
:100C0A0001300310F10CF00CFF3E031D062E0130DB
:100C1A00F402031D112E122EF52D75080319162E36
:100C2A00172E1C2EF209F309F20A0319F30A7308A4
:100C3A00F1007208F0000800F2008312031309158C
:100C4A000330F1009730F000F00B292EF10B292E1A
:100C5A002E2E8312031389140330F1009730F0000B
:100C6A00F00B352EF10B352E3A2E0F30FF007F0890
:100C7A008312031388057208F039FF007F0888047D
:100C8A000330F1009730F000F00B492EF10B492E9A
:100C9A004E2E8312031389100330F1009730F000AF
:100CAA00F00B552EF10B552E5A2E8312031389146D
:100CBA000330F1009730F000F00B612EF10B612E3A
:100CCA00662E0F30FF007F0883120313880572080F
:100CDA00F00003300310F00DFF3E031D6F2E0310CA
:100CEA00700DF039FF007F0888040330F100973057
:100CFA00F000F00B7E2EF10B7E2E832E831203134F
:100D0A0089100330F1009730F000F00B8A2EF10BB6
:100D1A008A2E8F2E0800F200831203130911033062
:100D2A00F1009730F000F00B982EF10B982E9D2EC3
:100D3A008312031389140330F1009730F000F00B8B
:100D4A00A42EF10BA42EA92E0F30FF007F088312C8
:100D5A00031388057208F039FF007F0888040330FE
:100D6A00F1009730F000F00BB82EF10BB82EBD2E23
:100D7A008312031389100330F1009730F000F00B4F
:100D8A00C42EF10BC42EC92E831203138914033007
:100D9A00F1009730F000F00BD02EF10BD02ED52EAB
:100DAA000F30FF007F088312031388057208F000D2
:100DBA0003300310F00DFF3E031DDE2E0310700DED
:100DCA00F039FF007F0888040330F1009730F00003
:100DDA00F00BED2EF10BED2EF22E83120313891078
:100DEA000330F1009730F000F00BF92EF10BF92ED9
:100DFA00FE2E080083160313861406150A128A119A
:100E0A001F250A128A110A128A11B5240A128A1196
:100E1A00F601F70131300A128A11C4240A128A1122
:100E2A0083120313CF01D001D10183120313861851
:100E3A001F2F202F592FFF30CB070318CC0AFF3062
:100E4A00CC07CC1F292F2A2F2C2FCB01CC014C08E1
:100E5A00F7004B08F6000A128A1183250A128A1132
:100E6A000A30F0000030F100831203134C08F3003B
:100E7A004B08F2000A128A11C8250A128A11700850
:100E8A007104031D492F4A2F502FFF30FF007F089E
:100E9A0083120313D10783120313D11F552F562F21
:100EAA00572FD101CF01CF0A06195C2F5D2FAB2F27
:100EBA000130CB070318CC0A0030CC074C08803A23
:100ECA00FF0080307F02031D6C2F65304B02031C2C
:100EDA006F2F702F762F643083120313CB000030EC
:100EEA00CC00831203134C08F7004B08F6000A12D1
:100EFA008A1183250A128A110A30F0000030F100A3
:100F0A00831203134C08F3004B08F2000A128A11E9
:100F1A00C8250A128A1170087104031D952F962F8D
:100F2A009C2F0130FF007F0883120313D10783121D
:100F3A0003135108803A753E031CA42FA52FA92F2D
:100F4A000A30FF007F08D100D001D00A5108033EC1
:100F5A00FF007F08F30001300A128A11E9240A12FD
:100F6A008A11831203135003031DBC2FBD2FC62FF2
:100F7A00FF300A128A1121260A128A1183120313D8
:100F8A00D0014F03031DCA2FCB2FD42F20300A12B2
:100F9A008A1121260A128A1183120313CF010D30F6
:100FAA0083120313CE00FB30CD00CD0BDA2FCE0B0C
:100FBA00DA2F1A2F0A128A11002883134130FD00F2
:100FCA000530FE003D30FF00203084000A128A11ED
:100FDA00DA240A128A11C101C201C301C401C5017E
:100FEA00C601C701C801C901CA01CB01CC018301ED
:060FFA000A128A11FF2E0D
:02400E00713F00
:00000001FF
