:020000040000FA
:060000000A128A110C280F
:10000800FE00030EF9000A08FA000A128A11812973
:100018000A128A110F2883133F30FD000130FE00B9
:10002800A630FF00203084000A128A11C9210A1262
:100038008A110A128A11D8210A128A11F6000A12A4
:100048008A11D9210A128A11F7000A128A11DA21B3
:100058000A128A11F800BF01C001C101C201F001F2
:10006800F101F201F301F401F50183010A128A1189
:100078003D28831603138801850183120313051194
:100088008511051285123408880083160313861516
:10009800061686163C30831203138F00B0308E008C
:1000A8009010101690121014831603130C14831258
:1000B80003130C100B178B178619632864286A28FA
:1000C800F601F60A861D69286A286628061A6D2828
:1000D8006E2876280230FF007F08F600061E752875
:1000E80076287228861A79287A2897288328023051
:1000F800FF007F08F7009328F701F70A932877088D
:10010800C300C4014408003A03198B289328430804
:10011800013A03197B28033A031980289328861E7D
:100128009628972893283F034004031D9C289D2860
:10013800B8287703031DA128A228B8287603031D31
:10014800A628A728AC280430FF007F08F007B628A7
:1001580002307606031DB128B228B628FC30FF000D
:100168007F08F007BF01C0017008803A6B3E031C8E
:10017800BE28BF28C028F001F01FC328C428C828FB
:100188001430FF007F08F0007008203E84008313BD
:100198000008D03EFF007F08F2000B307202031CFB
:1001A800D628D728DB280A30FF007F08F20070081D
:1001B800213E84000008D03EFF007F08F3000B308A
:1001C8007302031CE828E928ED280A30FF007F089D
:1001D800F3007008223E84000008D03EFF007F082C
:1001E800F4000B307402031CFA28FB28FF280A309D
:1001F800FF007F08F4007008233E84000008D03E0A
:10020800FF007F08F5000B307502031C0C290D292F
:1002180068290A30FF007F08F50068290511851153
:10022800051285168030FF007F0888057508343E62
:1002380084000008FF007F0888040230FF007F0860
:10024800F800602805118511051685128030FF0019
:100258007F0888057408343E84000008FF007F0882
:1002680088040330FF007F08F80060280511851511
:10027800051285128030FF007F0888057308343E18
:1002880084000008FF007F0888047103031D4D29BE
:100298004E29512980308806F1010430FF007F087B
:1002A800F800602805158511051285128030FF00B9
:1002B8007F0888057208343E84000008FF007F0824
:1002C8008804F801F80A60287808C300C4014408C3
:1002D800003A0319702960284308013A03191229C2
:1002E800033A03192629013A03193A29073A031947
:1002F800562960280A128A110C28831203130C1C31
:10030800862987299F290130C1070318C20A0030AE
:10031800C2070A3041064204031D932994299A29E9
:100328000130BF000030C000C101C2013C308F0065
:10033800B0308E000C107A088A00790E8300FE0E09
:100348007E0E0900313420343234203433342034E2
:10035800343420343534203436342034373420349F
:100368003834203420342034203420343F340634C8
:100378005B344F3466346D347D3407347F346F34E6
:1003880000347E088A007F0882000A128A11C5217B
:100398000A128A118000840A04087D0603190034B1
:0E03A800FF0A0319FE0AC92901340134013489
:02400E00713F00
:00000001FF
