:020000040000FA
:060000000A128A11122809
:10000800FE00030EF2000408F3000A08F40083124D
:1000180003137F08F5000A128A116A2A0A128A1144
:10002800152883134B30FD000230FE00E130FF003D
:10003800203084000A128A1180230A128A11D501FD
:1000480083010A128A1128280A128A112E230A12F9
:100058008A1183120313CF01D00131300A128A1199
:1000680066230A128A1183120313CF01CF0AD00123
:1000780021300A128A1166230A128A1104300A12E0
:100088008A11A4210A128A118316031306148615ED
:1000980006160B1601130B178B17831203138619F9
:1000A800562857288F28861D5A285B2857287F28C6
:1000B8000F30FF007F08CC0001300A128A114C2350
:1000C8000A128A110F300A128A11A4210A128A11FF
:1000D80083120313D5010230FF007F08A0008F2888
:1000E8000C300A128A11A4210A128A1183120313EE
:1000F800A001A00A8F282008D200D3015308003A93
:10010800031987288F285208013A03195C28033AF3
:10011800031974288F282003031D932894287A290B
:10012800D4015408413E84003A3083130002031C72
:100138009E289F28A6283030FF005408413E84009E
:100148007F0880005408413E8400303000020318C4
:10015800AE28AF28CC283930FF005408413E84002F
:100168007F0880005408423E840030300006031D9A
:10017800BE28BF28C7283930FF005408423E8400F3
:100188007F088000CC285408423E84000130800259
:100198000130FF007F08D4070A305402031CD52819
:1001A800D62895287A290130C1020F30FF007F0830
:1001B800CC0001300A128A114C230A128A118312C8
:1001C800031341080A128A1107220A128A1183129C
:1001D800031342080A128A1107220A128A1183128B
:1001E800031343080A128A1107220A128A1183127A
:1001F800031344080A128A1107220A128A11831269
:10020800031345080A128A1107220A128A11831257
:10021800031346080A128A1107220A128A11831246
:10022800031347080A128A1107220A128A11831235
:10023800031348080A128A1107220A128A11831224
:10024800031349080A128A1107220A128A11831213
:1002580003134A080A128A1107220A128A118A29E4
:10026800061A372938294729061E3B293C293829E7
:100278000130FF007F08D5070B305502031C4529C4
:1002880046294729D5010F300A128A11A4210A12DA
:100298008A118312031355080F3CFF007F08CC0016
:1002A80001300A128A114C230A128A110C300A12E0
:1002B8008A11A4210A128A11831203135508413E98
:1002C8008400831300080A128A1107220A128A116D
:1002D8008312031355080F3CFF007F08CC00013040
:1002E8000A128A114C230A128A118A292008D2007C
:1002F800D3015308003A031982298A295208013A7E
:100308000319D728033A031934298A290130FF0031
:100318007F08F60041300A128A11B1220A128A11A6
:1003280076087704031D99299A2951280230FF007D
:100338007F0883120313A00051280A128A11122879
:1003480083120313CB0009110330F7009730F6002E
:10035800F60BAC29F70BAC29B129831203138914C6
:100368000330F7009730F600F60BB829F70BB829D9
:10037800BD29831203134B08F03988000330F700B6
:100388009730F600F60BC629F70BC629CB2983123E
:10039800031389100330F7009730F600F60BD229C3
:1003A800F70BD229D7298312031389140330F700D6
:1003B8009730F600F60BDE29F70BDE29E3298312C6
:1003C80003134B08F60003300310F60DFF3E031D20
:1003D800E8290310760DF03988000330F7009730CC
:1003E800F600F60BF529F70BF529FA298312031302
:1003F80089100330F7009730F600F60B012AF70B47
:10040800012A062A080083120313CB0009150330BA
:10041800F7009730F600F60B0F2AF70B0F2A142A6D
:100428008312031389140330F7009730F600F60B94
:100438001B2AF70B1B2A202A831203134B08F039B7
:1004480088000330F7009730F600F60B292AF70BDF
:10045800292A2E2A8312031389100330F7009730B4
:10046800F600F60B352AF70B352A3A2A83120313BE
:1004780089140330F7009730F600F60B412AF70B82
:10048800412A462A831203134B08F600033003104F
:10049800F60DFF3E031D4B2A0310760DF039880038
:1004A8000330F7009730F600F60B582AF70B582A56
:1004B8005D2A8312031389100330F7009730F60082
:1004C800F60B642AF70B642A692A08008B1C6D2A2C
:1004D8006E2AA62A982A0130FF005508413E84005A
:1004E8007F08831380075508413E84003A30000294
:1004F800031C7F2A802A872A3030FF005508413E96
:1005080084007F0880005508413E84003030000296
:1005180003188F2A902AA52A3930FF005508413E32
:1005280084007F088000A52A2008F000F1017108E6
:10053800003A0319A02AA52A7008023A03196F2A5B
:10054800A52A8B107508FF0074088A0073088400B8
:10055800720E8300FE0E7E0E090083120313CE0076
:10056800BD2A0130FF007F08CE070130FF007F0859
:10057800F607760884000A128A118F230A128A1154
:10058800CB004E08840083130008CC004B084C02B3
:10059800FF007F08CD004D08031DD32AD42ADB2A8B
:1005A8004E0884000008031DDA2ADB2AB52A4D0804
:1005B800F600F701F61BF7030800023443346F34E2
:1005C80075346E3474343A340034003400340034F2
:1005D8000034003400340034003400343134303412
:1005E80020344434693467346934743420344334EF
:1005F8006F3475346E347434653472343034303456
:1006080030343034303430343034303430343034C2
:1006180083120313CD00CE01222B4E084D07CC00C8
:100628004C08840000080A128A1107220A128A114B
:100638000130FF007F0883120313CE074E084D07D1
:10064800CC004C08840083130008031D2C2B2D2B91
:10065800112B080083160313880109118910023031
:100668000A128A11A4210A128A1128300A128A1140
:10067800A4210A128A110C300A128A11A4210A1222
:100688008A1101300A128A11A4210A128A1108005B
:1006980083120313CD004D08031D532B542B5D2BE0
:1006A8004C084D0780380A128A11A4210A128A11AF
:1006B800652B4C08403E80380A128A11A4210A1280
:1006C8008A11080083120313D1005008FF007F0825
:1006D800CC004F080A128A114C230A128A1183127D
:1006E800031351080A128A110C230A128A110800EE
:1006F8007E088A007F0882000A128A117C230A1267
:100708008A118000840A04087D0603190034FF0A50
:100718000319FE0A802B03308A000408840A820722
:1007280000343034303430343034303430343034D1
:08073800303430343034003459
:02400E00713F00
:00000001FF
